:100000000C9453000C9470000C9470000C947000CD
:100010000C9470000C9470000C9470000C947000A0
:100020000C9470000C9470000C9470000C94700090
:100030000C9470000C9470000C9470000C94700080
:100040000C9470000C9470000C9470000C94700070
:100050000C9470000C9470000C9470000C94700060
:100060000C9470000C9470002B0A320A390A3F0A73
:100070005B0D5B0D5B0D5B0D5B0D5B0D5B0D480A56
:100080004F0A580A5F0A660A6D0A740A7B0A820AD6
:10009000890A900A970A9E0AA50AAC0AB30ABA0A04
:1000A000C10AC80ACF0A11241FBECFEFD8E0DEBFB5
:1000B000CDBF11E0A0E0B1E0E8EBFCE102C00590AB
:1000C0000D92A63BB107D9F716E1A6EBB1E001C04E
:1000D0001D92A636B107E1F70E9472000C945A0EE9
:1000E0000C9400000E9432080E94E50D82E692E026
:1000F000AA2797FDA095BA2F80509C4FAF4FBF4FB6
:1001000080709C7F90936102809360028091600276
:10011000909161020E948E0D609362167093631637
:10012000809364169093651660347105810591057E
:1001300059F580E091E00E94620884E191E00E941C
:10014000620885E191E00E94620885E291E00E94E8
:1001500062080E9474088DE291E00E9462080E9489
:10016000740880916002909161020E94780D8091E4
:100170006002909161020E94FF098CEC0E94470886
:1001800080E00E944708C2CF8AE591E00E946208A1
:100190006091621670916316809164169091651655
:1001A0000E946B080E9474088FEF9FEF0895DC0196
:1001B0000D900020E9F71197A81BB90BA80FB91FE4
:1001C00008C02C912C3511F02F3211F4119604C077
:1001D00011978A179B07A8F3CD010895CF93DF935A
:1001E000EC016EE270E00E944F0E9C01009731F02E
:1001F0008C179D0719F02F5F3F4F02C024E131E0BB
:10020000C901DF91CF910895982F882339F08FEF9E
:1002100080933702809336029093380286EB91E008
:1002200008950895FC01EF57FF4F2081332727FDE4
:1002300030952F5F3F4F442737FD4095542FB9012C
:10024000CA010895FC01EE57FF4F80810895DC013B
:10025000AF57BF4FEC91EF5FEC93FF27E7FDF095B1
:10026000EE0FFF1FEE0FFF1FE80FF91F40835183B2
:10027000628373830895DC01AF57BF4F2C91E22F47
:10028000FF27E7FDF095EE0FFF1FEE0FFF1FE80FB2
:10029000F91F608171818281938121502C9308958F
:1002A00020E030E040E050E0FC01EF57FF4F80815C
:1002B0008F3F21F421E030E040E050E0B901CA0175
:1002C0000895FC0190933A0280933902EF57FF4F53
:1002D00080818F5F80933B0289E392E00895FC0167
:1002E00090933A0280933902EF57FF4F80818F5FDE
:1002F00080933B0289E392E008950895FC012281F6
:1003000021502283332727FD3095432F532F2095EB
:10031000309540955095222757FD23953327442744
:100320005527B901CA010895FC01A081B1818281DC
:10033000992787FD9095880F991F880F991FA80FFF
:10034000B91F6C9111967C91119712968C9112970E
:1003500013969C910895FC01A081B181AF57BF4FC6
:100360008C918F5F82830895FC01EF57FF4F80814E
:10037000E158F040992787FD9095880F991F880FC5
:10038000991FE80FF91F608171818281938108951F
:10039000BC016F577F4FFB01A081EA2FFF27E7FDCC
:1003A000F095EE0FFF1FEE0FFF1FE80FF91F2081E2
:1003B000318142815381AF5FFB01A083BB27A7FD41
:1003C000B095AA0FBB1FAA0FBB1FA80FB91F2D9373
:1003D0003D934D935C9313970895FC01EF57FF4FA6
:1003E0008081E158F040992787FD9095880F991FEB
:1003F000880F991FE80FF91F80819181A281B38135
:1004000080959095A095B09580839183A283B383C6
:100410000895DC01AF57BF4F6C91E62FFF27E7FD32
:10042000F095EE0FFF1FEE0FFF1FE80FF91F208161
:10043000318142815381E62FE150EC93FF27E7FDA4
:10044000F095EE0FFF1FEE0FFF1FE80FF91F8081E1
:100450009181A281B38182239323A423B523808336
:100460009183A283B3830895DC01AF57BF4F6C9192
:10047000E62FFF27E7FDF095EE0FFF1FEE0FFF1FA2
:10048000E80FF91F2081318142815381E62FE1502D
:10049000EC93FF27E7FDF095EE0FFF1FEE0FFF1F18
:1004A000E80FF91F80819181A281B381822B932B68
:1004B000A42BB52B80839183A283B3830895DC01A1
:1004C000AF57BF4F6C91E62FFF27E7FDF095EE0F7A
:1004D000FF1FEE0FFF1FE80FF91F208131814281BE
:1004E0005381E62FE150EC93FF27E7FDF095EE0FE7
:1004F000FF1FEE0FFF1FE80FF91F80819181A2817E
:10050000B38182279327A427B52780839183A28371
:10051000B3830895FC01EF57FF4F8081E158F0400D
:10052000992787FD9095880F991F880F991FE80FCD
:10053000F91F80819181A281B381B095A09590959A
:1005400081959F4FAF4FBF4F80839183A283B38329
:100550000895FC01EF57FF4F8081E158F040992743
:1005600087FD9095880F991F880F991FE80FF91F35
:1005700080819181A281B3810196A11DB11D8083EB
:100580009183A283B3830895FC01EF57FF4F8081CD
:10059000E158F040992787FD9095880F991F880FA3
:1005A000991FE80FF91F80819181A281B381019782
:1005B000A109B10980839183A283B3830895DC01EB
:1005C000AF57BF4F6C91E62FFF27E7FDF095EE0F79
:1005D000FF1FEE0FFF1FE80FF91F208131814281BD
:1005E0005381E62FE150EC93FF27E7FDF095EE0FE6
:1005F000FF1FEE0FFF1FE80FF91F80819181A2817D
:10060000B381820F931FA41FB51F80839183A283A0
:10061000B3830895DC01AF57BF4F6C91E62FFF27DE
:10062000E7FDF095EE0FFF1FEE0FFF1FE80FF91F1C
:100630002081318142815381E62FE150EC93FF27E5
:10064000E7FDF095EE0FFF1FEE0FFF1FE80FF91FFC
:1006500080819181A281B381821B930BA40BB50B86
:1006600080839183A283B3830895CF93DF93DC01CA
:10067000AF57BF4F6C91E62FFF27E7FDF095EE0FC8
:10068000FF1FEE0FFF1FE80FF91F2081318142810C
:10069000538161506C93C62FDD27C7FDD095CC0FD9
:1006A000DD1FCC0FDD1FC80FD91F688179818A81BA
:1006B0009B810E94F30D688379838A839B83DF91FA
:1006C000CF910895CF93DF93DC01AF57BF4F6C916B
:1006D000E62FFF27E7FDF095EE0FFF1FEE0FFF1F40
:1006E000E80FF91F208131814281538161506C9361
:1006F000C62FDD27C7FDD095CC0FDD1FCC0FDD1F2A
:10070000C80FD91F688179818A819B810E94340E2C
:10071000688379838A839B83DF91CF910895DC017D
:10072000AF57BF4F3C91E32FFF27E7FDF095EE0F4A
:10073000FF1FEE0FFF1FE80FF91F2081E32FE1508D
:10074000EC93FF27E7FDF095EE0FFF1FEE0FFF1F65
:10075000E80FF91F80819181A281B38104C0880FC5
:10076000991FAA1FBB1F2A95D2F780839183A2836A
:10077000B3830895DC01AF57BF4F3C91E32FFF27B0
:10078000E7FDF095EE0FFF1FEE0FFF1FE80FF91FBB
:100790002081E32FE150EC93FF27E7FDF095EE0F6A
:1007A000FF1FEE0FFF1FE80FF91F80819181A281CB
:1007B000B38104C0B595A795979587952A95D2F7EB
:1007C00080839183A283B38308950F931F93DC01E9
:1007D000AF57BF4F2C91E22FFF27E7FDF095EE0FAB
:1007E000FF1FEE0FFF1FE80FF91F4081518162814B
:1007F000738121502C93E22FFF27E7FDF095EE0F38
:10080000FF1FEE0FFF1FE80FF91F00E010E020E0D0
:1008100030E080819181A281B38184179507A6077A
:10082000B70721F401E010E020E030E000831183FD
:10083000228333831F910F9108950F931F93DC013F
:10084000AF57BF4F2C91E22FFF27E7FDF095EE0F3A
:10085000FF1FEE0FFF1FE80FF91F408151816281DA
:10086000738121502C93E22FFF27E7FDF095EE0FC7
:10087000FF1FEE0FFF1FE80FF91F00E010E020E060
:1008800030E080819181A281B38184179507A6070A
:10089000B70721F001E010E020E030E00083118391
:1008A000228333831F910F9108950F931F93DC01CF
:1008B000AF57BF4F2C91E22FFF27E7FDF095EE0FCA
:1008C000FF1FEE0FFF1FE80FF91F4081518162816A
:1008D000738121502C93E22FFF27E7FDF095EE0F57
:1008E000FF1FEE0FFF1FE80FF91F00E010E020E0F0
:1008F00030E080819181A281B38184179507A6079A
:10090000B70724F401E010E020E030E00083118319
:10091000228333831F910F9108950F931F93DC015E
:10092000AF57BF4F2C91E22FFF27E7FDF095EE0F59
:10093000FF1FEE0FFF1FE80FF91F408151816281F9
:10094000738121502C93E22FFF27E7FDF095EE0FE6
:10095000FF1FEE0FFF1FE80FF91F00E010E020E07F
:1009600030E080819181A281B381481759076A07DD
:100970007B0724F401E010E020E030E000831183E5
:10098000228333831F910F9108950F931F93DC01EE
:10099000AF57BF4F2C91E22FFF27E7FDF095EE0FE9
:1009A000FF1FEE0FFF1FE80FF91F40815181628189
:1009B000738121502C93E22FFF27E7FDF095EE0F76
:1009C000FF1FEE0FFF1FE80FF91F00E010E020E00F
:1009D00030E080819181A281B381481759076A076D
:1009E0007B0724F001E010E020E030E00083118379
:1009F000228333831F910F9108950F931F93DC017E
:100A0000AF57BF4F2C91E22FFF27E7FDF095EE0F78
:100A1000FF1FEE0FFF1FE80FF91F40815181628118
:100A2000738121502C93E22FFF27E7FDF095EE0F05
:100A3000FF1FEE0FFF1FE80FF91F00E010E020E09E
:100A400030E080819181A281B38184179507A60748
:100A5000B70724F001E010E020E030E000831183CC
:100A6000228333831F910F910895CF92DF92EF92EB
:100A7000FF920F931F93AC01862F837011E8C12E54
:100A8000D12CC40ED51ED6012C91E22FFF27E7FDF5
:100A9000F095EE0FFF1FEE0FFF1FE40FF51FE08034
:100AA000F18002811381382F320FE32FFF27E7FDFA
:100AB000F095EE0FFF1FEE0FFF1FE40FF51F262F1F
:100AC000220F220F2074660F6871262B822B90E074
:100AD000A0E0B0E080839183A283B3833F5FE32FE4
:100AE000FF27E7FDF095EE0FFF1FEE0FFF1FE40F4E
:100AF000F51FE082F182028313833F5FF6013083AA
:100B0000E32FFF27E7FDF095EE0FFF1FEE0FFF1F0E
:100B1000E40FF51F40585F4FDA018C91992787FD4C
:100B20009095A92FB92F80839183A283B383FA0173
:100B300030831F910F91FF90EF90DF90CF90089539
:100B4000CF92DF92EF92FF920F931F939C01862F1B
:100B5000877071E8C72ED12CC20ED31ED6014C91DE
:100B6000E42FFF27E7FDF095EE0FFF1FEE0FFF1FAD
:100B7000E20FF31FE080F18002811381480FE42F20
:100B8000FF27E7FDF095EE0FFF1FEE0FFF1FE20FAF
:100B9000F31F6877862B90E0A0E0B0E0808391831C
:100BA000A283B3834F5FE42FFF27E7FDF095EE0F9D
:100BB000FF1FEE0FFF1FE20FF31FE082F18202839F
:100BC00013834F5FF6014083E42FFF27E7FDF09585
:100BD000EE0FFF1FEE0FFF1FE20FF31F20583F4FD6
:100BE000D9018C91992787FD9095A92FB92F8083E2
:100BF0009183A283B383F90140831F910F91FF90EA
:100C0000EF90DF90CF9008958F929F92AF92BF9216
:100C1000CF92DF92EF92FF921F93CF93DF93EC017D
:100C2000C058DF4FE881C058D040FF27E7FDF0955E
:100C30003297EE0FFF1FEE0FFF1FEC0FFD1F2081FD
:100C4000822F829586958695837090E0A0E0B0E033
:100C5000122F1695169516951770277051E0852E50
:100C6000912CA12CB12C88229922AA22BB2280FD92
:100C700005C040E050E060E070E014C0DE01AF5716
:100C8000BF4F8C91E82FFF27E7FDF095EE0FFF1F78
:100C9000EE0FFF1FEC0FFD1F4081518162817381B8
:100CA00081508C93DE01AF57BF4F9C91E92FFF27F6
:100CB000E7FDF095EE0FFF1FEE0FFF1FEC0FFD1F7E
:100CC0008081C058DF4F8883C058D0409150E92FB1
:100CD000FF27E7FDF095EE0FFF1FEE0FFF1FEC0F54
:100CE000FD1FC080D180E280F380812F820F392FD9
:100CF000381B32503C93822F90E0810F911D089752
:100D000014F0321B3C9381149104A104B10499F0B6
:100D1000DE01AF57BF4FEC91EF5FEC93FF27E7FD8C
:100D2000F095EE0FFF1FEE0FFF1FEC0FFD1F40832E
:100D3000518362837383DE01AF57BF4FEC91EF5F46
:100D4000EC93FF27E7FDF095EE0FFF1FEE0FFF1F5F
:100D5000EC0FFD1FC082D182E282F382DF91CF913E
:100D60001F91FF90EF90DF90CF90BF90AF909F903A
:100D70008F900895EF92FF921F93CF93DF93EC0132
:100D8000462FC058DF4F8881C058D040682F772742
:100D900067FD7095FB013297EE0FFF1FEE0FFF1FEF
:100DA000EC0FFD1F8081382F3695369536953770BC
:100DB000282F2770822F90E0830F911D08972CF029
:100DC000822F841B8E5F820F03C0822F841B8E5F55
:100DD000830F681B7109660F771F660F771F6C0FF3
:100DE0007D1FFB0180819181A281B38131E8E32ED7
:100DF000F12CEC0EFD1EF7011081E12FFF27E7FD1E
:100E0000F095EE0FFF1FEE0FFF1FEC0FFD1F20816F
:100E10003181428153811150F7011083820F931F5A
:100E2000A41FB51FFB0180839183A283B383DF914D
:100E3000CF911F91FF90EF900895CF93DF93EC0136
:100E4000C058DF4F8881C058D040A82FBB27A7FDCE
:100E5000B095FD013297EE0FFF1FEE0FFF1FEC0F55
:100E6000FD1F8081382F3695369536953770282F9F
:100E70002770822F90E0830F911D089734F0822F06
:100E8000861B682F6E5F620F03C0261B622F6E5F8A
:100E9000630FA61BB109AA0FBB1FAA0FBB1FAC0F84
:100EA000BD1F2D913D914D915C91DE01AF57BF4F1C
:100EB000EC91EF5FEC93FF27E7FDF095EE0FFF1F3E
:100EC000EE0FFF1FEC0FFD1F2083318342835383FE
:100ED000DF91CF9108950F931F93CF93DF93EC0190
:100EE000C058DF4F8881C058D040082F112707FD18
:100EF0001095F8013297EE0FFF1FEE0FFF1FEC0F5A
:100F0000FD1F8081382F3695369536953770282FFE
:100F10002770822F90E0830F911D089734F0822F65
:100F2000861B682F6E5F620F03C0261B622F6E5FE9
:100F3000630FDE01AF57BF4F8C91E82FFF27E7FD0E
:100F4000F095EE0FFF1FEE0FFF1FEC0FFD1F20812E
:100F500031814281538181508C93061B1109000F0E
:100F6000111F000F111F0C0F1D1FF801208331836B
:100F700042835383DF91CF911F910F9108950F9377
:100F80001F93BC01FC01EF57FF4F8081A82FBB27A7
:100F9000A7FDB095AA0FBB1FAA0FBB1FA60FB71FB7
:100FA0002D913D914D915C91082F015000832115A9
:100FB00031054105510529F489E691E00E94620856
:100FC00015C0112707FD1095000F111F000F111FED
:100FD000060F171FF80160817181828193810E9441
:100FE000340EF80120833183428353831F910F9184
:100FF0000895EF92FF920F931F93CF93DF93EC012D
:10100000E881F981EF57FF4F80818F5F8A838BE5FD
:101010000E94470817C0E881F981992787FD9095BC
:10102000880F991F880F991FE80FF91FE080F18042
:10103000028113818BE791E00E946208C801B70129
:101040000E946B088A8181508A8387FFE4CF8DE7F5
:1010500091E00E946208DF91CF911F910F91FF9064
:10106000EF90089580E891E00E94A9080E94390855
:10107000089590933D0280933C020895E0913C02D4
:10108000F0913D020190F081E02D09950895E091E5
:101090003C02F0913D020280F381E02D0995089514
:1010A000E0913C02F0913D020480F581E02D09952C
:1010B0000895E0913C02F0913D020680F781E02D19
:1010C00009950895E0913C02F0913D020084F1857C
:1010D000E02D09950895E0913C02F0913D020284D3
:1010E000F385E02D09950895E0913C02F0913D02D1
:1010F0000484F585E02D0995089561157105810534
:10110000910511F496E401C094E58091C00085FF3B
:10111000FCCF9093C6000895982F8091C00085FF62
:10112000FCCF9093C6000895FC0107C08091C000D9
:1011300085FFFCCF31969093C60090819923B1F73B
:1011400008958091C00085FFFCCF8AE08093C6009F
:10115000089580913E0290913F02A0914002B0918B
:1011600041020097A105B105C9F487E68093C40048
:101170001092C50086E08093C2008091C100886013
:101180008093C10081E090E0A0E0B0E080933E0257
:1011900090933F02A0934002B093410281E891E016
:1011A0000895EF92FF920F9322E4E22E22E0F22EB6
:1011B000A70120E030E000E10E940609C7010E947B
:1011C00094080F91FF90EF900895EF92FF920F9384
:1011D00032E4E32E32E0F32EA70120E030E00AE013
:1011E0000E940609C7010E9494080F91FF90EF909A
:1011F00008950F931F9302E412E0A8010E94E009F2
:10120000C8010E9494081F910F9108952F923F9258
:101210004F925F926F927F928F929F92AF92BF9206
:10122000CF92DF92EF92FF920F931F93DF93CF93B2
:10123000CDB7DEB72D970FB6F894DEBF0FBECDBF8A
:1012400069837A838B839C835E834D833D872C8760
:101250000F830A3041F4612C2AEC722E2AE9822E87
:101260002BE3922E07C020E12F83612C712C812C5F
:1012700090E1992E89819A81AB81BC810097A1056B
:10128000B10561F4ED81FE81AC85BD85EA0FFB1FE0
:1012900080E380831196BD87AC8771C022243324FC
:1012A00021013F81232F30E040E050E0288739873B
:1012B0004A875B8769817A818B819C81A401930134
:1012C0000E94120E59016A01211431044104510493
:1012D00029F4A114B104C104D10469F14F814A3049
:1012E00079F4ED81FE818C859D85E80FF91F8A2DAB
:1012F000805D8083AC85BD851196BD87AC8716C0A7
:10130000BAE0AB16B104C104D10418F08A2D895C8F
:1013100002C08A2D805DED81FE812C853D85E20F26
:10132000F31F80832F5F3F4F3D872C8781E0282E5E
:10133000312C412C512CC401B301288539854A85B3
:101340005B850E94120E79018A01E114F104010506
:101350001105A9F0C601B501A40193010E94F30D86
:1013600029813A814B815C81261B370B480B590B35
:1013700029833A834B835C83370148019BCF4D819E
:101380005E818C859D85480F591FDA011C922D9630
:101390000FB6F894DEBF0FBECDBFCF91DF911F9186
:1013A0000F91FF90EF90DF90CF90BF90AF909F9004
:1013B0008F907F906F905F904F903F902F90089507
:1013C0000F931F938B019C01DA0197FD03C0E0E0AE
:1013D000F0E00BC08DE28C9330952095109501952F
:1013E0001F4F2F4F3F4FE1E0F0E0C901B801AD01C1
:1013F0009F010AE00E9406091F910F9108952F9204
:101400003F924F925F926F927F928F929F92AF9294
:10141000BF92CF92DF92EF92FF920F931F93DF93D1
:10142000CF9300D000D0CDB7DEB7C8C2802F815097
:101430008F3208F0BBC0802F90E0FC013197EF3174
:10144000F10508F038C3EC5CFF4FEE0FFF1F05906D
:10145000F491E02D099480915202909153020E94E0
:101460003B0123C080915202909153020E94C80117
:1014700003C180915202909153020E940406809110
:101480005202909153020E943B017C836B8313C3F1
:1014900080915202909153020E94ED01FDC0809113
:1014A0005202909153020E9409022B813C8137C263
:1014B00080915202909153020E943402DDC08091CB
:1014C0005202909153020E945F02E6C08091520244
:1014D000909153020E948A02E8CF8091520290912B
:1014E00053020E94A902C8C08091520290915302F7
:1014F0000E94C402D1C080915202909153020E9476
:10150000DF02D3CF80915202909153020E940A03CE
:10151000B3C080915202909153020E943503BCC027
:1015200080915202909153020E94BF07BECF8091DA
:101530005202909153020E9462039EC08091520217
:10154000909153020E948F03A7C080915202909104
:1015500053020E94BA03A9CF809152029091530284
:101560000E94E50389C080915202909153020E942B
:101570001D0492C080915202909153020E94550422
:1015800094CF80915202909153020E948D0474C0B6
:1015900080915202909153020E94C5047DC08091B7
:1015A0005202909153020E94FD047FCF802F8053FE
:1015B000803250F4803114F08051806F992787FD7C
:1015C0009095EB81FC81D5C1802F80558032B0F49D
:1015D000182F803114F01051106F809152029091A9
:1015E00053020E943B01611571058105910509F0C7
:1015F00011E0812F992787FD9095AEC1602F60572C
:10160000603238F480915202909153020E94350565
:1016100033C0802F80598830B0F4802F90E08770DD
:101620009070843091051CF004978C6F9F6FAC0113
:10163000662757FD6095762F809152029091530254
:101640000E94270129C0802F8859883048F40770EC
:101650008091520290915302602F0E94BA0625CFCA
:10166000802F805A883060F40770809152029091E8
:101670005302602F0E941D078B819C8101969EC1A1
:10168000802F885A883060F40770809152029091C0
:101690005302602F0E946B07EB81FC8131966BC176
:1016A000003B08F408C2093D09F4AEC00A3D40F50C
:1016B000043B09F472C0053B80F4013B09F445C0CA
:1016C000023B20F4003B09F0E2C15DC0023B09F49B
:1016D00046C0033B09F0DBC14CC0053D09F481C0A5
:1016E000063D38F40F3B09F461C0043D09F0CFC159
:1016F00067C0073D09F488C0083D09F0C8C1A1C012
:101700000E3D09F4CAC00F3D68F40B3D09F4C5C095
:101710000B3D08F496C00C3D09F476C00D3D09F070
:10172000B6C18FC0033E09F404C1043E38F4003E44
:1017300009F4F8C0013E09F0AAC113C1073E09F43B
:101740001DC10F3F09F0A3C13CC18091520290918D
:101750005302EB81FC8161810E941D0791C1809140
:10176000520290915302EB81FC8161810E946B07D0
:1017700087C1809152029091530241E050E060E0B5
:1017800070E00E9427018091520290915302EB81F8
:10179000FC8161810E94BA0673C1809152029091CE
:1017A00053024FEF5FEF6FEF7FEFEBCF809152026D
:1017B00090915302EB81FC8161810E94A00560C180
:1017C000EB81FC814181552747FD50954E0F5F1FEE
:1017D000662757FD6095762F8091520290915302B3
:1017E0002DC0EB81FC8191808824428150E0482902
:1017F00059294E0F5F1F662757FD6095762F809100
:1018000052029091530242C0EB81FC818181093DDB
:1018100019F4482F20E002C0282F40E080915202A6
:1018200090915302093D31F4552747FD5095652F9E
:10183000752F04C0422F50E060E070E00E94270145
:101840001FC1EB81FC81818192810A3D49F4782E90
:101850006624292F30E02629372940E050E008C0CF
:10186000582E4424492F50E04429552920E030E0E7
:1018700080915202909153020A3D31F4A9016627EA
:1018800057FD6095762F02C060E070E00E9427014E
:101890002B813C812D5F3F4FF7C02B813C812F5F17
:1018A0003F4FF9013196DF0111967D010894E11C4B
:1018B000F11CB180AA24A501662757FD6095762FFB
:1018C00040706070707011968C9190E0A0E0B0E074
:1018D000482B592B6A2B7B2BEB81FC81D180CC24AC
:1018E000C601AA2797FDA095BA2F8070A070B0708E
:1018F000F901018110E020E030E0802B912BA22B38
:10190000B32BDC0199278827482B592B6A2B7B2B7B
:1019100080915202909153020E94270197012F5FFC
:101920003F4FB2C0EB81FC818181992787FD909563
:1019300020C080915202909153020E943B01611598
:1019400071058105910511F082E003C0EB81FC81F6
:101950008181992787FD90952B813C81280F391F24
:1019600093C0EB81FC8131802224828190E0822926
:101970009329E80FF91FFC83EB839DC0EB81FC8169
:10198000F181FA831982EB81FC81028110E02981C7
:101990003A81022B132B3396AF01662757FD6095D2
:1019A000762F3397FC83EB83809152029091530200
:1019B0000E9427018B819C81800F911F9C838B83C8
:1019C0007AC0EB81FC819181892F8058883008F0A2
:1019D00057C0892F90E08F7090708330910589F106
:1019E000843091054CF481309105C1F0823091052D
:1019F000FCF4892B51F044C086309105B1F1873059
:101A00009105E1F10597E1F525C080915202909191
:101A100053020E943B010E943E0832C08091520254
:101A2000909153020E943B01862F0E94470828C0D4
:101A300080915202909153020E943B010E945008F3
:101A40001FC080915202909153020E943B010E945C
:101A5000590816C080915202909153020E943B0196
:101A6000DC01CB010E9462080BC080915202909170
:101A700053020E943B010E946B0802C00E9474083E
:101A80002B813C812E5F3F4F3C832B8314C08FE81A
:101A900091E00E946208602F70E080E090E00E9478
:101AA0006B0888E991E00E9462080E94740880E057
:101AB00090E00E945A0EEB81FC810081002309F026
:101AC000B5CC0F900F900F900F90CF91DF911F9199
:101AD0000F91FF90EF90DF90CF90BF90AF909F90CD
:101AE0008F907F906F905F904F903F902F900895D0
:101AF00010924E0210924F02109250021092510218
:101B000080E20E94040190935302809352020E944B
:101B10006F0190935502809354020895EF92FF92C3
:101B20000F931F9320915602309157024091580213
:101B300050915902E0905A02F0905B0200915C02D1
:101B400010915D0225C0211531054105510521F493
:101B500021E030E040E050E091E0E92EF12C012D51
:101B6000112D8032A9F420935602309357024093EE
:101B7000580250935902E0925A02F0925B0200938D
:101B80005C0210935D0260E470E080E090E018C0B9
:101B90008091C00087FFFCCF8091C600882399F612
:101BA00020935602309357024093580250935902A3
:101BB000E0925A02F0925B0200935C0210935D0285
:101BC0001F910F91FF90EF900895E1ECF0E080817C
:101BD00080698083789408958091C00087FFFCCF4E
:101BE0008091C6000895629FD001739FF001829F8B
:101BF000E00DF11D649FE00DF11D929FF00D839F9C
:101C0000F00D749FF00D659FF00D9927729FB00D38
:101C1000E11DF91F639FB00DE11DF91FBD01CF014B
:101C200011240895A1E21A2EAA1BBB1BFD010DC0B1
:101C3000AA1FBB1FEE1FFF1FA217B307E407F5077C
:101C400020F0A21BB30BE40BF50B661F771F881F58
:101C5000991F1A9469F760957095809590959B01EE
:101C6000AC01BD01CF01089597FB092E05260ED0CA
:101C700057FD04D0D7DF0AD0001C38F450954095AA
:101C8000309521953F4F4F4F5F4F0895F6F7909550
:101C90008095709561957F4F8F4F9F4F0895FC0100
:101CA00081E090E00190061609F4CF010020D1F701
:081CB00001970895F894FFCF9D
:101CB800436D205669727475616C204D6163686963
:101CC8006E652000002076302E312E30302E3131D6
:101CD80030316120002857696E33322900436F7014
:101CE8007972696768742028632920323030312D71
:101CF8003230323020204D696368656C206465207D
:101D08004368616D706C61696E004C6F61646572E7
:101D1800206572726F723A20004469766973696F40
:101D28006E206279207A65726F0A002000205D00BB
:101D3800007D088C08F908E5089408D108A1084F27
:101D480070636F64653A200020697320726573655B
:101D58007276656420666F72206675747572652088
:061D6800757365642E0096
:00000001FF
