:100000000C9453000C9470000C9470000C947000CD
:100010000C9470000C9470000C9470000C947000A0
:100020000C9470000C9470000C9470000C94700090
:100030000C9470000C9470000C9470000C94700080
:100040000C9470000C9470000C9470000C94700070
:100050000C9470000C9470000C9470000C94700060
:100060000C9470000C947000C209C909D009D6091B
:10007000F20CF20CF20CF20CF20CF20CF20CDF09A6
:10008000E609EF09F609FD09040A0B0A120A190A22
:10009000200A270A2E0A350A3C0A430A4A0A510A4C
:1000A000580A5F0A660A11241FBECFEFD8E0DEBFF0
:1000B000CDBF11E0A0E0B1E0E6E0FBE102C00590B9
:1000C0000D92A03BB107D9F712E0A0EBB1E001C05F
:1000D0001D92A035B107E1F70E9472000C94810DCA
:1000E0000C9400000F931F930E94C90780E091E0D9
:1000F0000E94F90784E191E00E94F90785E191E00F
:100100000E94F90785E291E00E94F9070E940B081E
:1001100082E391E00E94F9070E940B080FE511E0CD
:10012000C8010E940F0DC8010E94960980E090E06E
:100130001F910F910895982F882339F08FEF8093A6
:100140003102809330029093320280EB91E0089567
:100150000895FC01EF57FF4F2081332727FD30958D
:100160002F5F3F4F442737FD4095542FB901CA01F7
:100170000895FC01EE57FF4F80810895DC01AF57D1
:10018000BF4FEC91EF5FEC93FF27E7FDF095EE0F8B
:10019000FF1FEE0FFF1FE80FF91F4083518362839B
:1001A00073830895DC01AF57BF4F2C91E22FFF27D7
:1001B000E7FDF095EE0FFF1FEE0FFF1FE80FF91F91
:1001C000608171818281938121502C93089520E078
:1001D00030E040E050E0FC01EF57FF4F80818F3F5F
:1001E00021F421E030E040E050E0B901CA01089577
:1001F000FC019093340280933302EF57FF4F8081CC
:100200008F5F8093350283E392E00895FC01909321
:10021000340280933302EF57FF4F80818F5F8093CA
:10022000350283E392E008950895FC012281215074
:100230002283332727FD3095432F532F2095309568
:1002400040955095222757FD23953327442755275E
:10025000B901CA010895FC01A081B1818281992769
:1002600087FD9095880F991F880F991FA80FB91FB8
:100270006C9111967C91119712968C91129713960E
:100280009C910895FC01A081B181AF57BF4F8C9123
:100290008F5F82830895FC01EF57FF4F8081E15803
:1002A000F040992787FD9095880F991F880F991F17
:1002B000E80FF91F60817181828193810895BC01EB
:1002C0006F577F4FFB01A081EA2FFF27E7FDF095D5
:1002D000EE0FFF1FEE0FFF1FE80FF91F2081318186
:1002E00042815381AF5FFB01A083BB27A7FDB0957F
:1002F000AA0FBB1FAA0FBB1FA80FB91F2D933D93B9
:100300004D935C9313970895FC01EF57FF4F808145
:10031000E158F040992787FD9095880F991F880F25
:10032000991FE80FF91F80819181A281B381809587
:100330009095A095B09580839183A283B38308950F
:10034000DC01AF57BF4F6C91E62FFF27E7FDF0951B
:10035000EE0FFF1FEE0FFF1FE80FF91F2081318105
:1003600042815381E62FE150EC93FF27E7FDF095A2
:10037000EE0FFF1FEE0FFF1FE80FF91F8081918125
:10038000A281B38182239323A423B5238083918305
:10039000A283B3830895DC01AF57BF4F6C91E62F62
:1003A000FF27E7FDF095EE0FFF1FEE0FFF1FE80F91
:1003B000F91F2081318142815381E62FE150EC9376
:1003C000FF27E7FDF095EE0FFF1FEE0FFF1FE80F71
:1003D000F91F80819181A281B381822B932BA42B61
:1003E000B52B80839183A283B3830895DC01AF573B
:1003F000BF4F6C91E62FFF27E7FDF095EE0FFF1F33
:10040000EE0FFF1FE80FF91F2081318142815381D8
:10041000E62FE150EC93FF27E7FDF095EE0FFF1F6D
:10042000EE0FFF1FE80FF91F80819181A281B38138
:1004300082279327A427B52780839183A283B38340
:100440000895FC01EF57FF4F8081E158F040992754
:1004500087FD9095880F991F880F991FE80FF91F46
:1004600080819181A281B381B095A095909581956D
:100470009F4FAF4FBF4F80839183A283B383089573
:10048000FC01EF57FF4F8081E158F040992787FD2D
:100490009095880F991F880F991FE80FF91F808189
:1004A0009181A281B3810196A11DB11D80839183A9
:1004B000A283B3830895FC01EF57FF4F8081E15879
:1004C000F040992787FD9095880F991F880F991FF5
:1004D000E80FF91F80819181A281B3810197A10961
:1004E000B10980839183A283B3830895DC01AF5760
:1004F000BF4F6C91E62FFF27E7FDF095EE0FFF1F32
:10050000EE0FFF1FE80FF91F2081318142815381D7
:10051000E62FE150EC93FF27E7FDF095EE0FFF1F6C
:10052000EE0FFF1FE80FF91F80819181A281B38137
:10053000820F931FA41FB51F80839183A283B3836F
:100540000895DC01AF57BF4F6C91E62FFF27E7FD01
:10055000F095EE0FFF1FEE0FFF1FE80FF91F208130
:10056000318142815381E62FE150EC93FF27E7FD73
:10057000F095EE0FFF1FEE0FFF1FE80FF91F8081B0
:100580009181A281B381821B930BA40BB50B808355
:100590009183A283B3830895CF93DF93DC01AF5798
:1005A000BF4F6C91E62FFF27E7FDF095EE0FFF1F81
:1005B000EE0FFF1FE80FF91F208131814281538127
:1005C00061506C93C62FDD27C7FDD095CC0FDD1F82
:1005D000CC0FDD1FC80FD91F688179818A819B816B
:1005E0000E94250D688379838A839B83DF91CF9155
:1005F0000895CF93DF93DC01AF57BF4F6C91E62F87
:10060000FF27E7FDF095EE0FFF1FEE0FFF1FE80F2E
:10061000F91F208131814281538161506C93C62F33
:10062000DD27C7FDD095CC0FDD1FCC0FDD1FC80F18
:10063000D91F688179818A819B810E94660D6883B8
:1006400079838A839B83DF91CF910895DC01AF5733
:10065000BF4F3C91E32FFF27E7FDF095EE0FFF1F03
:10066000EE0FFF1FE80FF91F2081E32FE150EC93FD
:10067000FF27E7FDF095EE0FFF1FEE0FFF1FE80FBE
:10068000F91F80819181A281B38104C0880F991FD5
:10069000AA1FBB1F2A95D2F780839183A283B383BD
:1006A0000895DC01AF57BF4F3C91E32FFF27E7FDD3
:1006B000F095EE0FFF1FEE0FFF1FE80FF91F2081CF
:1006C000E32FE150EC93FF27E7FDF095EE0FFF1FBE
:1006D000EE0FFF1FE80FF91F80819181A281B38186
:1006E00004C0B595A795979587952A95D2F78083ED
:1006F0009183A283B38308950F931F93DC01AF57B7
:10070000BF4F2C91E22FFF27E7FDF095EE0FFF1F63
:10071000EE0FFF1FE80FF91F408151816281738145
:1007200021502C93E22FFF27E7FDF095EE0FFF1FDE
:10073000EE0FFF1FE80FF91F00E010E020E030E0AF
:1007400080819181A281B38184179507A607B7079D
:1007500021F401E010E020E030E0008311832283E7
:1007600033831F910F9108950F931F93DC01AF57AF
:10077000BF4F2C91E22FFF27E7FDF095EE0FFF1FF3
:10078000EE0FFF1FE80FF91F4081518162817381D5
:1007900021502C93E22FFF27E7FDF095EE0FFF1F6E
:1007A000EE0FFF1FE80FF91F00E010E020E030E03F
:1007B00080819181A281B38184179507A607B7072D
:1007C00021F001E010E020E030E00083118322837B
:1007D00033831F910F9108950F931F93DC01AF573F
:1007E000BF4F2C91E22FFF27E7FDF095EE0FFF1F83
:1007F000EE0FFF1FE80FF91F408151816281738165
:1008000021502C93E22FFF27E7FDF095EE0FFF1FFD
:10081000EE0FFF1FE80FF91F00E010E020E030E0CE
:1008200080819181A281B38184179507A607B707BC
:1008300024F401E010E020E030E000831183228303
:1008400033831F910F9108950F931F93DC01AF57CE
:10085000BF4F2C91E22FFF27E7FDF095EE0FFF1F12
:10086000EE0FFF1FE80FF91F4081518162817381F4
:1008700021502C93E22FFF27E7FDF095EE0FFF1F8D
:10088000EE0FFF1FE80FF91F00E010E020E030E05E
:1008900080819181A281B381481759076A077B073C
:1008A00024F401E010E020E030E000831183228393
:1008B00033831F910F9108950F931F93DC01AF575E
:1008C000BF4F2C91E22FFF27E7FDF095EE0FFF1FA2
:1008D000EE0FFF1FE80FF91F408151816281738184
:1008E00021502C93E22FFF27E7FDF095EE0FFF1F1D
:1008F000EE0FFF1FE80FF91F00E010E020E030E0EE
:1009000080819181A281B381481759076A077B07CB
:1009100024F001E010E020E030E000831183228326
:1009200033831F910F9108950F931F93DC01AF57ED
:10093000BF4F2C91E22FFF27E7FDF095EE0FFF1F31
:10094000EE0FFF1FE80FF91F408151816281738113
:1009500021502C93E22FFF27E7FDF095EE0FFF1FAC
:10096000EE0FFF1FE80FF91F00E010E020E030E07D
:1009700080819181A281B38184179507A607B7076B
:1009800024F001E010E020E030E0008311832283B6
:1009900033831F910F910895CF92DF92EF92FF92D0
:1009A0000F931F93AC01862F837011E8C12ED12CB9
:1009B000C40ED51ED6012C91E22FFF27E7FDF0953E
:1009C000EE0FFF1FEE0FFF1FE40FF51FE080F18019
:1009D00002811381382F320FE32FFF27E7FDF095B7
:1009E000EE0FFF1FEE0FFF1FE40FF51F262F220F44
:1009F000220F2074660F6871262B822B90E0A0E0F6
:100A0000B0E080839183A283B3833F5FE32FFF270E
:100A1000E7FDF095EE0FFF1FEE0FFF1FE40FF51F30
:100A2000E082F182028313833F5FF6013083E32F7C
:100A3000FF27E7FDF095EE0FFF1FEE0FFF1FE40FFE
:100A4000F51F40585F4FDA018C91992787FD9095EB
:100A5000A92FB92F80839183A283B383FA013083B6
:100A60001F910F91FF90EF90DF90CF900895CF925C
:100A7000DF92EF92FF920F931F939C01862F877056
:100A800071E8C72ED12CC20ED31ED6014C91E42F93
:100A9000FF27E7FDF095EE0FFF1FEE0FFF1FE20FA0
:100AA000F31FE080F18002811381480FE42FFF27BC
:100AB000E7FDF095EE0FFF1FEE0FFF1FE20FF31F94
:100AC0006877862B90E0A0E0B0E080839183A283DA
:100AD000B3834F5FE42FFF27E7FDF095EE0FFF1F75
:100AE000EE0FFF1FE20FF31FE082F18202831383F8
:100AF0004F5FF6014083E42FFF27E7FDF095EE0FEF
:100B0000FF1FEE0FFF1FE20FF31F20583F4FD901C9
:100B10008C91992787FD9095A92FB92F8083918378
:100B2000A283B383F90140831F910F91FF90EF904F
:100B3000DF90CF9008958F929F92AF92BF92CF9205
:100B4000DF92EF92FF921F93CF93DF93EC01C05897
:100B5000DF4FE881C058D040FF27E7FDF09532977E
:100B6000EE0FFF1FEE0FFF1FEC0FFD1F2081822FE6
:100B7000829586958695837090E0A0E0B0E0122F74
:100B80001695169516951770277051E0852E912CA5
:100B9000A12CB12C88229922AA22BB2280FD05C05B
:100BA00040E050E060E070E014C0DE01AF57BF4F9E
:100BB0008C91E82FFF27E7FDF095EE0FFF1FEE0F5A
:100BC000FF1FEC0FFD1F40815181628173818150B5
:100BD0008C93DE01AF57BF4F9C91E92FFF27E7FDB4
:100BE000F095EE0FFF1FEE0FFF1FEC0FFD1F808132
:100BF000C058DF4F8883C058D0409150E92FFF275D
:100C0000E7FDF095EE0FFF1FEE0FFF1FEC0FFD1F2E
:100C1000C080D180E280F380812F820F392F381B72
:100C200032503C93822F90E0810F911D089714F071
:100C3000321B3C9381149104A104B10499F0DE01AC
:100C4000AF57BF4FEC91EF5FEC93FF27E7FDF095B7
:100C5000EE0FFF1FEE0FFF1FEC0FFD1F40835183B0
:100C600062837383DE01AF57BF4FEC91EF5FEC936C
:100C7000FF27E7FDF095EE0FFF1FEE0FFF1FEC0FB4
:100C8000FD1FC082D182E282F382DF91CF911F915A
:100C9000FF90EF90DF90CF90BF90AF909F908F909C
:100CA0000895EF92FF921F93CF93DF93EC01462FAD
:100CB000C058DF4F8881C058D040682F772767FD24
:100CC0007095FB013297EE0FFF1FEE0FFF1FEC0F29
:100CD000FD1F8081382F3695369536953770282F31
:100CE0002770822F90E0830F911D08972CF0822FA0
:100CF000841B8E5F820F03C0822F841B8E5F830F45
:100D0000681B7109660F771F660F771F6C0F7D1FB9
:100D1000FB0180819181A281B38131E8E32EF12C26
:100D2000EC0EFD1EF7011081E12FFF27E7FDF09586
:100D3000EE0FFF1FEE0FFF1FEC0FFD1F2081318113
:100D4000428153811150F7011083820F931FA41F1A
:100D5000B51FFB0180839183A283B383DF91CF9181
:100D60001F91FF90EF900895CF93DF93EC01C0584F
:100D7000DF4F8881C058D040A82FBB27A7FDB09572
:100D8000FD013297EE0FFF1FEE0FFF1FEC0FFD1F4F
:100D90008081382F3695369536953770282F2770F5
:100DA000822F90E0830F911D089734F0822F861BCD
:100DB000682F6E5F620F03C0261B622F6E5F630F8A
:100DC000A61BB109AA0FBB1FAA0FBB1FAC0FBD1FEB
:100DD0002D913D914D915C91DE01AF57BF4FEC914C
:100DE000EF5FEC93FF27E7FDF095EE0FFF1FEE0F8F
:100DF000FF1FEC0FFD1F2083318342835383DF915C
:100E0000CF9108950F931F93CF93DF93EC01C058B8
:100E1000DF4F8881C058D040082F112707FD10955B
:100E2000F8013297EE0FFF1FEE0FFF1FEC0FFD1FB3
:100E30008081382F3695369536953770282F277054
:100E4000822F90E0830F911D089734F0822F861B2C
:100E5000682F6E5F620F03C0261B622F6E5F630FE9
:100E6000DE01AF57BF4F8C91E82FFF27E7FDF095CC
:100E7000EE0FFF1FEE0FFF1FEC0FFD1F20813181D2
:100E80004281538181508C93061B1109000F111F61
:100E9000000F111F0C0F1D1FF801208331834283A7
:100EA0005383DF91CF911F910F9108950F931F935B
:100EB000BC01FC01EF57FF4F8081A82FBB27A7FD86
:100EC000B095AA0FBB1FAA0FBB1FA60FB71F2D916E
:100ED0003D914D915C91082F015000832115310502
:100EE0004105510529F483E691E00E94F90715C0F8
:100EF000112707FD1095000F111F000F111F060F7E
:100F0000171FF80160817181828193810E94660DB3
:100F1000F80120833183428353831F910F910895F9
:100F2000EF92FF920F931F93CF93DF93EC01E88131
:100F3000F981EF57FF4F80818F5F8A838BE50E9495
:100F4000DE0717C0E881F981992787FD9095880F02
:100F5000991F880F991FE80FF91FE080F180028127
:100F6000138185E791E00E94F907C801B7010E944B
:100F700002088A8181508A8387FFE4CF87E791E066
:100F80000E94F907DF91CF911F910F91FF90EF9091
:100F900008958AE791E00E9440080E94D0070895D2
:100FA00090933702809336020895E0913602F091D3
:100FB00037020190F081E02D09950895E091360205
:100FC000F09137020280F381E02D09950895E091B8
:100FD0003602F09137020480F581E02D09950895DD
:100FE000E0913602F09137020680F781E02D0995F5
:100FF0000895E0913602F09137020084F185E02DEA
:1010000009950895E0913602F09137020284F38544
:10101000E02D09950895E0913602F091370204849D
:10102000F585E02D099508956115710581059105F6
:1010300011F496E401C094E58091C00085FFFCCFD7
:101040009093C6000895982F8091C00085FFFCCF33
:101050009093C6000895FC0107C08091C00085FFF1
:10106000FCCF31969093C60090819923B1F70895F3
:101070008091C00085FFFCCF8AE08093C600089570
:101080008091380290913902A0913A02B0913B02CE
:101090000097A105B105C9F487E68093C4001092BA
:1010A000C50086E08093C2008091C1008860809373
:1010B000C10081E090E0A0E0B0E08093380290931E
:1010C0003902A0933A02B0933B028BE791E0089576
:1010D000EF92FF920F932CE3E22E22E0F22EA70173
:1010E00020E030E000E10E949D08C7010E942B082B
:1010F0000F91FF90EF900895EF92FF920F933CE3D2
:10110000E32E32E0F32EA70120E030E00AE00E9457
:101110009D08C7010E942B080F91FF90EF90089542
:101120000F931F930CE312E0A8010E947709C801F6
:101130000E942B081F910F9108952F923F924F927A
:101140005F926F927F928F929F92AF92BF92CF9257
:10115000DF92EF92FF920F931F93DF93CF93CDB760
:10116000DEB72D970FB6F894DEBF0FBECDBF6983F3
:101170007A838B839C835E834D833D872C870F838B
:101180000A3041F4612C2AEC722E2AE9822E2BE3DC
:10119000922E07C020E12F83612C712C812C90E1CD
:1011A000992E89819A81AB81BC810097A105B105F7
:1011B00061F4ED81FE81AC85BD85EA0FFB1F80E304
:1011C00080831196BD87AC8771C02224332421010E
:1011D0003F81232F30E040E050E0288739874A875D
:1011E0005B8769817A818B819C81A40193010E9434
:1011F000440D59016A01211431044104510429F4B8
:10120000A114B104C104D10469F14F814A3079F4C9
:10121000ED81FE818C859D85E80FF91F8A2D805D0B
:101220008083AC85BD851196BD87AC8716C0BAE0BA
:10123000AB16B104C104D10418F08A2D895C02C038
:101240008A2D805DED81FE812C853D85E20FF31FA7
:1012500080832F5F3F4F3D872C8781E0282E312CE4
:10126000412C512CC401B301288539854A855B8501
:101270000E94440D79018A01E114F1040105110570
:10128000A9F0C601B501A40193010E94250D298191
:101290003A814B815C81261B370B480B590B298304
:1012A0003A834B835C83370148019BCF4D815E813C
:1012B0008C859D85480F591FDA011C922D960FB61B
:1012C000F894DEBF0FBECDBFCF91DF911F910F917C
:1012D000FF90EF90DF90CF90BF90AF909F908F9056
:1012E0007F906F905F904F903F902F9008950F9355
:1012F0001F938B019C01DA0197FD03C0E0E0F0E051
:101300000BC08DE28C9330952095109501951F4F61
:101310002F4F3F4FE1E0F0E0C901B801AD019F015F
:101320000AE00E949D081F910F9108952F923F920D
:101330004F925F926F927F928F929F92AF92BF92E5
:10134000CF92DF92EF92FF920F931F93DF93CF9391
:1013500000D000D0CDB7DEB7C8C2802F81508F3209
:1013600008F0BBC0802F90E0FC013197EF31F10510
:1013700008F038C3EC5CFF4FEE0FFF1F0590F491AF
:10138000E02D099480914C0290914D020E94D20070
:1013900023C080914C0290914D020E945F0103C1D5
:1013A00080914C0290914D020E949B0580914C02CD
:1013B00090914D020E94D2007C836B8313C3809175
:1013C0004C0290914D020E948401FDC080914C021C
:1013D00090914D020E94A0012B813C8137C28091E7
:1013E0004C0290914D020E94CB01DDC080914C02D5
:1013F00090914D020E94F601E6C080914C029091BE
:101400004D020E942102E8CF80914C0290914D0242
:101410000E944002C8C080914C0290914D020E94EF
:101420005B02D1C080914C0290914D020E947602E5
:10143000D3CF80914C0290914D020E94A102B3C083
:1014400080914C0290914D020E94CC02BCC08091D0
:101450004C0290914D020E945607BECF80914C02E3
:1014600090914D020E94F9029EC080914C02909191
:101470004D020E942603A7C080914C0290914D021C
:101480000E945103A9CF80914C0290914D020E947D
:101490007C0389C080914C0290914D020E94B4035C
:1014A00092C080914C0290914D020E94EC0394CF27
:1014B00080914C0290914D020E94240474C080914E
:1014C0004C0290914D020E945C047DC080914C02C0
:1014D00090914D020E9494047FCF802F80538032E0
:1014E00050F4803114F08051806F992787FD9095DA
:1014F000EB81FC81D5C1802F80558032B0F4182F4C
:10150000803114F01051106F80914C0290914D0277
:101510000E94D200611571058105910509F011E065
:10152000812F992787FD9095AEC1602F605760325B
:1015300038F480914C0290914D020E94CC0433C04B
:10154000802F80598830B0F4802F90E087709070A1
:10155000843091051CF004978C6F9F6FAC01662757
:1015600057FD6095762F80914C0290914D020E941C
:10157000BE0029C0802F8859883048F407708091B8
:101580004C0290914D02602F0E94510625CF802F72
:10159000805A883060F4077080914C0290914D021F
:1015A000602F0E94B4068B819C8101969EC1802F82
:1015B000885A883060F4077080914C0290914D02F7
:1015C000602F0E940207EB81FC8131966BC1003BCA
:1015D00008F408C2093D09F4AEC00A3D40F5043BD9
:1015E00009F472C0053B80F4013B09F445C0023B9D
:1015F00020F4003B09F0E2C15DC0023B09F446C0A3
:10160000033B09F0DBC14CC0053D09F481C0063D38
:1016100038F40F3B09F461C0043D09F0CFC167C045
:10162000073D09F488C0083D09F0C8C1A1C00E3DBE
:1016300009F4CAC00F3D68F40B3D09F4C5C00B3D69
:1016400008F496C00C3D09F476C00D3D09F0B6C112
:101650008FC0033E09F404C1043E38F4003E09F48F
:10166000F8C0013E09F0AAC113C1073E09F41DC12B
:101670000F3F09F0A3C13CC180914C0290914D02F3
:10168000EB81FC8161810E94B40691C180914C0282
:1016900090914D02EB81FC8161810E94020787C11C
:1016A00080914C0290914D0241E050E060E070E08A
:1016B0000E94BE0080914C0290914D02EB81FC8112
:1016C00061810E94510673C180914C0290914D023C
:1016D0004FEF5FEF6FEF7FEFEBCF80914C02909178
:1016E0004D02EB81FC8161810E94370560C1EB8175
:1016F000FC814181552747FD50954E0F5F1F66279E
:1017000057FD6095762F80914C0290914D022DC02F
:10171000EB81FC8191808824428150E0482959293D
:101720004E0F5F1F662757FD6095762F80914C0204
:1017300090914D0242C0EB81FC818181093D19F4F9
:10174000482F20E002C0282F40E080914C02909169
:101750004D02093D31F4552747FD5095652F752FF2
:1017600004C0422F50E060E070E00E94BE001FC144
:10177000EB81FC81818192810A3D49F4782E6624B7
:10178000292F30E02629372940E050E008C0582EA4
:101790004424492F50E04429552920E030E080912D
:1017A0004C0290914D020A3D31F4A901662757FD84
:1017B0006095762F02C060E070E00E94BE002B8131
:1017C0003C812D5F3F4FF7C02B813C812F5F3F4F06
:1017D000F9013196DF0111967D010894E11CF11C9D
:1017E000B180AA24A501662757FD6095762F407029
:1017F0006070707011968C9190E0A0E0B0E0482B82
:10180000592B6A2B7B2BEB81FC81D180CC24C60128
:10181000AA2797FDA095BA2F8070A070B070F9012B
:10182000018110E020E030E0802B912BA22BB32B24
:10183000DC0199278827482B592B6A2B7B2B809119
:101840004C0290914D020E94BE0097012F5F3F4FC6
:10185000B2C0EB81FC818181992787FD909520C0E2
:1018600080914C0290914D020E94D2006115710549
:101870008105910511F082E003C0EB81FC8181813B
:10188000992787FD90952B813C81280F391F93C0A4
:10189000EB81FC8131802224828190E0822993298E
:1018A000E80FF91FFC83EB839DC0EB81FC81F18184
:1018B000FA831982EB81FC81028110E029813A814F
:1018C000022B132B3396AF01662757FD6095762FB9
:1018D0003397FC83EB8380914C0290914D020E94E0
:1018E000BE008B819C81800F911F9C838B837AC06B
:1018F000EB81FC819181892F8058883008F057C096
:10190000892F90E08F7090708330910589F1843039
:1019100091054CF481309105C1F082309105FCF4C1
:10192000892B51F044C086309105B1F18730910583
:10193000E1F10597E1F525C080914C0290914D02AF
:101940000E94D2000E94D50732C080914C02909133
:101950004D020E94D200862F0E94DE0728C080918F
:101960004C0290914D020E94D2000E94E7071FC0D6
:1019700080914C0290914D020E94D2000E94F0078B
:1019800016C080914C0290914D020E94D200DC0161
:10199000CB010E94F9070BC080914C0290914D023F
:1019A0000E94D2000E94020802C00E940B082B81F4
:1019B0003C812E5F3F4F3C832B8314C089E891E02C
:1019C0000E94F907602F70E080E090E00E9402081A
:1019D00082E991E00E94F9070E940B0880E090E004
:1019E0000E94810DEB81FC810081002309F0B5CCC0
:1019F0000F900F900F900F90CF91DF911F910F914B
:101A0000FF90EF90DF90CF90BF90AF909F908F901E
:101A10007F906F905F904F903F902F90089510921D
:101A200048021092490210924A0210924B0280E240
:101A30000E949B0090934D0280934C020E940601ED
:101A400090934F0280934E020895629FD001739F3E
:101A5000F001829FE00DF11D649FE00DF11D929F4A
:101A6000F00D839FF00D749FF00D659FF00D992789
:101A7000729FB00DE11DF91F639FB00DE11DF91FAD
:101A8000BD01CF0111240895A1E21A2EAA1BBB1B90
:101A9000FD010DC0AA1FBB1FEE1FFF1FA217B3073A
:101AA000E407F50720F0A21BB30BE40BF50B661F50
:101AB000771F881F991F1A9469F760957095809514
:101AC00090959B01AC01BD01CF01089597FB092EB4
:101AD00005260ED057FD04D0D7DF0AD0001C38F4FD
:101AE00050954095309521953F4F4F4F5F4F08954A
:101AF000F6F790958095709561957F4F8F4F9F4F2A
:061B00000895F894FFCFE8
:101B0600436D205669727475616C204D6163686916
:101B16006E652000002076302E312E30302E313189
:101B260030316120002841544D65676133323850A9
:101B36002900436F707972696768742028632920C9
:101B4600323030312D3230323020204D69636865B5
:101B56006C206465204368616D706C61696E0091EC
:101B6600FF82004469766973696F6E206279207A14
:101B760065726F0A002000205D000014082308909B
:101B8600087C082B08680838084F70636F64653A4C
:101B9600200020697320726573657276656420661D
:101BA6006F722066757475726520757365642E0094
:00000001FF
