:100000000C9434000C9451000C9451000C94510049
:100010000C9451000C9451000C9451000C9451001C
:100020000C9451000C9451000C9451000C9451000C
:100030000C9451000C9451000C9451000C945100FC
:100040000C9451000C9451000C9451000C945100EC
:100050000C9451000C9451000C9451000C945100DC
:100060000C9451000C94510011241FBECFEFD8E026
:10007000DEBFCDBF11E0A0E0B1E0ECE6F5E002C0EC
:1000800005900D92A031B107D9F711E0A0E1B1E0E0
:1000900001C01D92A232B107E1F70E9453000C94F7
:1000A000B4020C940000CF93DF930E94A60064E298
:1000B00070E080E090E00E9495009B01AC0120621E
:1000C00064E270E080E090E00E94A100C0E9D1E02D
:1000D00065E270E080E090E00E9495009B01AC0139
:1000E000206265E270E080E090E00E94A10080E183
:1000F00097E2FE013197F1F70197D9F765E270E0D9
:1001000080E090E00E9495009B01AC012F7D65E2AC
:1001100070E080E090E00E94A10080E197E2FE01A3
:100120003197F1F70197D9F7D3CFDC01CB01FC016F
:100130002081332727FD3095432F532FB901CA0162
:100140000895DC01CB01FC012083089580E091E05B
:100150000E941D010E94AD000895909311018093AB
:1001600010010895E0911001F09111010190F081CA
:10017000E02D09950895E0911001F09111010280A0
:10018000F381E02D09950895E0911001F09111019E
:100190000480F581E02D09950895E0911001F0911A
:1001A00011010680F781E02D09950895E091100175
:1001B000F09111010084F185E02D09950895E091F9
:1001C0001001F09111010284F385E02D0995089545
:1001D000E0911001F09111010484F585E02D09955D
:1001E0000895611571058105910511F496E401C02A
:1001F00094E58091C00085FFFCCF9093C6000895E0
:10020000982F8091C00085FFFCCF9093C600089581
:10021000FC0107C08091C00085FFFCCF3196909310
:10022000C60090819923B1F708958091C00085FFA1
:10023000FCCF8AE08093C6000895809112019091CE
:100240001301A0911401B09115010097A105B1050A
:10025000C9F487E68093C4001092C50086E08093BD
:10026000C2008091C10088608093C10081E090E06D
:10027000A0E0B0E08093120190931301A0931401C9
:10028000B093150181E091E00895EF92FF920F93F2
:1002900026E1E22E21E0F22EA70120E030E000E18D
:1002A0000E947A01C7010E9408010F91FF90EF9010
:1002B0000895EF92FF920F9336E1E32E31E0F32E93
:1002C000A70120E030E00AE00E947A01C7010E9405
:1002D00008010F91FF90EF9008950F931F9306E18F
:1002E00011E0A8010E945402C8010E9408011F9158
:1002F0000F9108952F923F924F925F926F927F924B
:100300008F929F92AF92BF92CF92DF92EF92FF9225
:100310000F931F93DF93CF93CDB7DEB72D970FB613
:10032000F894DEBF0FBECDBF69837A838B839C8335
:100330005E834D833D872C870F830A3041F4612C07
:100340002AEC722E2AE9822E2BE3922E07C020E19E
:100350002F83612C712C812C90E1992E89819A81B7
:10036000AB81BC810097A105B10561F4ED81FE81EF
:10037000AC85BD85EA0FFB1F80E380831196BD87A6
:10038000AC8771C02224332421013F81232F30E028
:1003900040E050E0288739874A875B8769817A8106
:1003A0008B819C81A40193010E94920259016A01F0
:1003B000211431044104510429F4A114B104C104ED
:1003C000D10469F14F814A3079F4ED81FE818C8549
:1003D0009D85E80FF91F8A2D805D8083AC85BD85E2
:1003E0001196BD87AC8716C0BAE0AB16B104C10444
:1003F000D10418F08A2D895C02C08A2D805DED81C0
:10040000FE812C853D85E20FF31F80832F5F3F4FD8
:100410003D872C8781E0282E312C412C512CC401A2
:10042000B301288539854A855B850E94920279014E
:100430008A01E114F10401051105A9F0C601B50115
:10044000A40193010E94730229813A814B815C814E
:10045000261B370B480B590B29833A834B835C834C
:10046000370148019BCF4D815E818C859D85480F6A
:10047000591FDA011C922D960FB6F894DEBF0FBEFD
:10048000CDBFCF91DF911F910F91FF90EF90DF9043
:10049000CF90BF90AF909F908F907F906F905F9024
:1004A0004F903F902F9008950F931F938B019C01C5
:1004B000DA0197FD03C0E0E0F0E00BC08DE28C9321
:1004C00030952095109501951F4F2F4F3F4FE1E03C
:1004D000F0E0C901B801AD019F010AE00E947A0174
:1004E0001F910F910895629FD001739FF001829F29
:1004F000E00DF11D649FE00DF11D929FF00D839FB3
:10050000F00D749FF00D659FF00D9927729FB00D4F
:10051000E11DF91F639FB00DE11DF91FBD01CF0162
:1005200011240895A1E21A2EAA1BBB1BFD010DC0C8
:10053000AA1FBB1FEE1FFF1FA217B307E407F50793
:1005400020F0A21BB30BE40BF50B661F771F881F6F
:10055000991F1A9469F760957095809590959B0105
:0C056000AC01BD01CF010895F894FFCF5D
:10056C0000F10000016D0159010801450115010060
:00000001FF
