:100000000C9434000C9451000C9451000C94510049
:100010000C9451000C9451000C9451000C9451001C
:100020000C9451000C9451000C9451000C9451000C
:100030000C9451000C9451000C9451000C945100FC
:100040000C9451000C9451000C9451000C945100EC
:100050000C9451000C9451000C9451000C945100DC
:100060000C9451000C94510011241FBECFEFD8E026
:10007000DEBFCDBF11E0A0E0B1E0E2EFF4E002C0EE
:1000800005900D92AC32B107D9F711E0ACE2B1E0C6
:1000900001C01D92AC33B107E1F70E94B4000C948B
:1000A00077020C940000611571058105910511F42A
:1000B00096E401C094E58091C00085FFFCCF909349
:1000C000C6000895982F8091C00085FFFCCF9093C3
:1000D000C6000895FC0107C08091C00085FFFCCFD9
:1000E00031969093C60090819923B1F7089580913D
:1000F000C00085FFFCCF8AE08093C6000895809100
:100100002C0190912D01A0912E01B0912F0100970B
:10011000A105B105C9F487E68093C4001092C5001B
:1001200086E08093C2008091C10088608093C10006
:1001300081E090E0A0E0B0E080932C0190932D014D
:10014000A0932E01B0932F018DE191E008950F93BC
:100150001F9300E311E0A8010E941702C8010E944A
:100160006A001F910F9108950F93CF93DF9387E655
:100170008093C4001092C50086E08093C2008091F5
:10018000C10088608093C10080E091E00E947F0000
:10019000259AC0E9D1E081E091E00E946A008CE0FC
:1001A00091E00E946A0062ED74E080E090E040E33C
:1001B00051E00E94170280E391E00E946A0065ED21
:1001C0007DED80E090E040E351E020E030E00AE0A7
:1001D0000E943D0180E391E00E946A006FEE7DEC99
:1001E0008BEA90E040E351E020E030E000E10E9443
:1001F0003D0180E391E00E946A008091C00085FF8C
:10020000FCCF8AE08093C6002D9A80E197E2FE0140
:100210003197F1F70197D9F72D9880E197E2FE0128
:100220003197F1F70197D9F7B6CFEF92FF920F937D
:1002300020E3E22E21E0F22EA70120E030E000E1F1
:100240000E943D01C7010E946A000F91FF90EF904C
:100250000895EF92FF920F9330E3E32E31E0F32EF7
:10026000A70120E030E00AE00E943D01C7010E94A2
:100270006A000F91FF90EF9008952F923F924F9256
:100280005F926F927F928F929F92AF92BF92CF9226
:10029000DF92EF92FF920F931F93DF93CF93CDB72F
:1002A000DEB72D970FB6F894DEBF0FBECDBF6983C2
:1002B0007A838B839C835E834D833D872C870F835A
:1002C0000A3041F4612C2AEC722E2AE9822E2BE3AB
:1002D000922E07C020E12F83612C712C812C90E19C
:1002E000992E89819A81AB81BC810097A105B105C6
:1002F00061F4ED81FE81AC85BD85EA0FFB1F80E3D3
:1003000080831196BD87AC8771C0222433242101DC
:100310003F81232F30E040E050E0288739874A872B
:100320005B8769817A818B819C81A40193010E9402
:10033000550259016A01211431044104510429F480
:10034000A114B104C104D10469F14F814A3079F498
:10035000ED81FE818C859D85E80FF91F8A2D805DDA
:100360008083AC85BD851196BD87AC8716C0BAE089
:10037000AB16B104C104D10418F08A2D895C02C007
:100380008A2D805DED81FE812C853D85E20FF31F76
:1003900080832F5F3F4F3D872C8781E0282E312CB3
:1003A000412C512CC401B301288539854A855B85D0
:1003B0000E94550279018A01E114F1040105110539
:1003C000A9F0C601B501A40193010E94360229815A
:1003D0003A814B815C81261B370B480B590B2983D3
:1003E0003A834B835C83370148019BCF4D815E810B
:1003F0008C859D85480F591FDA011C922D960FB6EA
:10040000F894DEBF0FBECDBFCF91DF911F910F914A
:10041000FF90EF90DF90CF90BF90AF909F908F9024
:100420007F906F905F904F903F902F9008950F9323
:100430001F938B019C01DA0197FD03C0E0E0F0E01F
:100440000BC08DE28C9330952095109501951F4F30
:100450002F4F3F4FE1E0F0E0C901B801AD019F012E
:100460000AE00E943D011F910F910895629FD00103
:10047000739FF001829FE00DF11D649FE00DF11D5F
:10048000929FF00D839FF00D749FF00D659FF00D0E
:100490009927729FB00DE11DF91F639FB00DE11DFB
:1004A000F91FBD01CF0111240895A1E21A2EAA1B44
:1004B000BB1BFD010DC0AA1FBB1FEE1FFF1FA21714
:1004C000B307E407F50720F0A21BB30BE40BF50B11
:1004D000661F771F881F991F1A9469F7609570959A
:1004E000809590959B01AC01BD01CF010895F894D2
:0204F000FFCF3C
:1004F20000546573742078746F610A0031323334AA
:1005020035363738394142434445460A0053006282
:0C05120000A70029016A00150177000015
:00000001FF
