:100000000C9434000C9451000C9451000C94510049
:100010000C9451000C9451000C9451000C9451001C
:100020000C9451000C9451000C9451000C9451000C
:100030000C9451000C9451000C9451000C945100FC
:100040000C9451000C9451000C9451000C945100EC
:100050000C9451000C9451000C9451000C945100DC
:100060000C9451000C94510011241FBECFEFD8E026
:10007000DEBFCDBF11E0A0E0B1E0EAE0F7E002C0F2
:1000800005900D92A23DB107D9F711E0A2EDB1E0C4
:1000900001C01D92A43EB107E1F70E9453000C94E9
:1000A00083030C9400000F931F930E94750180E05E
:1000B00091E00E94A5018DE191E00E94A50188E8F0
:1000C00091E00E94A5010E94710187FD03C083E9B0
:1000D00091E002C087E991E00E94A5018BE991E0DF
:1000E0000E94A5018FE991E00E94A5010E944F01A5
:1000F00084EA91E00E94A5010E94710187FD03C07E
:1001000083E991E002C087E991E00E94A50186EAB7
:1001100091E00E94A5010E94450184EA91E00E94BD
:10012000A5010E94710187FD03C083E991E002C02F
:1001300087E991E00E94A5018BE991E00E94A50169
:100140008BEA91E00E94A5010E945901182F092F06
:1001500081EB91E00E94A50117FD03C083E991E0C6
:1001600002C087E991E00E94A50184EA91E00E9423
:10017000A5010E94710187FD03C083E991E002C0DF
:1001800087E991E00E94A50184EB91E00E94A5011E
:10019000812F902F0E94660184EA91E00E94A501C0
:1001A0000E94710187FD03C083E991E002C087E9E5
:1001B00091E00E94A5018BE991E00E94A5018FE9E1
:1001C00091E00E94A5010E944F0184EA91E00E9403
:1001D000A5010E94710187FD03C083E991E002C07F
:1001E00087E991E00E94A5018BEA91E00E94A501B8
:1001F0000E945901182F092F81EB91E00E94A5015F
:1002000017FD03C083E991E002C087E991E00E94F5
:10021000A50184EA91E00E94A5010E94710187FD79
:1002200003C083E991E002C087E991E00E94A50143
:1002300084EB91E00E94A501812F902F0E9466011E
:1002400084EA91E00E94A5010E94710187FD03C02C
:1002500083E991E002C087E991E00E94A5018BE962
:1002600091E00E94A50189EB91E00E94A5010E9406
:10027000710187FD03C083E991E002C087E991E045
:100280000E94A5010E94B701FFCF80915F0090916D
:1002900060008F779093600080935F000895809155
:1002A0005F009091600080689093600080935F0091
:1002B00008958FB79091600020915F0030916000A9
:1002C0002F773093600020935F0008959093600033
:1002D00080935F000895089560E070E080E090E012
:1002E00008958FB790916000089583EC91E00E948B
:1002F000EC010E947C0108959093D3018093D20178
:100300000895E091D201F091D3010190F081E02DA8
:1003100009950895E091D201F091D3010280F38113
:10032000E02D09950895E091D201F091D301048068
:10033000F581E02D09950895E091D201F091D30166
:100340000680F781E02D09950895E091D201F091A2
:10035000D3010084F185E02D09950895E091D20143
:10036000F091D3010284F385E02D09950895E09181
:10037000D201F091D3010484F585E02D099508950B
:10038000611571058105910511F496E401C094E5AC
:100390008091C00085FFFCCF9093C6000895982FF0
:1003A0008091C00085FFFCCF9093C6000895FC01AA
:1003B00007C08091C00085FFFCCF31969093C600A6
:1003C00090819923B1F708958091C00085FFFCCFFB
:1003D0008AE08093C60008958091D4019091D50160
:1003E000A091D601B091D7010097A105B105C9F43C
:1003F00087E68093C4001092C50086E08093C20017
:100400008091C10088608093C10081E090E0A0E00D
:10041000B0E08093D4019093D501A093D601B0931E
:10042000D70184EC91E00895EF92FF920F9328EDAD
:10043000E22E21E0F22EA70120E030E000E10E9450
:100440004902C7010E94D7010F91FF90EF900895D4
:10045000EF92FF920F9338EDE32E31E0F32EA701D8
:1004600020E030E00AE00E944902C7010E94D70163
:100470000F91FF90EF9008950F931F9308ED11E0F7
:10048000A8010E942303C8010E94D7011F910F9168
:1004900008952F923F924F925F926F927F928F9228
:1004A0009F92AF92BF92CF92DF92EF92FF920F9303
:1004B0001F93DF93CF93CDB7DEB72D970FB6F89488
:1004C000DEBF0FBECDBF69837A838B839C835E833F
:1004D0004D833D872C870F830A3041F4612C2AEC31
:1004E000722E2AE9822E2BE3922E07C020E12F8361
:1004F000612C712C812C90E1992E89819A81AB819C
:10050000BC810097A105B10561F4ED81FE81AC8548
:10051000BD85EA0FFB1F80E380831196BD87AC8702
:1005200071C02224332421013F81232F30E040E099
:1005300050E0288739874A875B8769817A818B8178
:100540009C81A40193010E94610359016A01211455
:1005500031044104510429F4A114B104C104D104AB
:1005600069F14F814A3079F4ED81FE818C859D855A
:10057000E80FF91F8A2D805D8083AC85BD851196BB
:10058000BD87AC8716C0BAE0AB16B104C104D10474
:1005900018F08A2D895C02C08A2D805DED81FE8174
:1005A0002C853D85E20FF31F80832F5F3F4F3D87F2
:1005B0002C8781E0282E312C412C512CC401B30111
:1005C000288539854A855B850E94610379018A0106
:1005D000E114F10401051105A9F0C601B501A4015A
:1005E00093010E94420329813A814B815C81261B41
:1005F000370B480B590B29833A834B835C833701B4
:1006000048019BCF4D815E818C859D85480F591F88
:10061000DA011C922D960FB6F894DEBF0FBECDBF47
:10062000CF91DF911F910F91FF90EF90DF90CF90CE
:10063000BF90AF909F908F907F906F905F904F9002
:100640003F902F9008950F931F938B019C01DA0127
:1006500097FD03C0E0E0F0E00BC08DE28C93309595
:100660002095109501951F4F2F4F3F4FE1E0F0E08F
:10067000C901B801AD019F010AE00E9449021F9122
:100680000F910895629FD001739FF001829FE00D4A
:10069000F11D649FE00DF11D929FF00D839FF00D01
:1006A000749FF00D659FF00D9927729FB00DE11DAD
:1006B000F91F639FB00DE11DF91FBD01CF0111248A
:1006C0000895A1E21A2EAA1BBB1BFD010DC0AA1F93
:1006D000BB1FEE1FFF1FA217B307E407F50720F0AB
:1006E000A21BB30BE40BF50B661F771F881F991F26
:1006F0001A9469F760957095809590959B01AC016F
:0A070000BD01CF010895F894FFCF6A
:10070A0054657374202330202D20496E74657272EB
:10071A00757074204D616E616765720A004F6E458F
:10072A006E7472793A20495B645D207C203C4549AD
:10073A003E495B655D3C44493E495B645D207C20E3
:10074A003C5344493E53495B645D495B645D3C529A
:10075A00493E495B645D207C203C45493E495B65D6
:10076A005D3C5344493E53495B655D495B645D3C6E
:10077A0052493E495B655D207C204F6E457869741D
:10078A003A20495B655D0A004F6E456E7472793A8C
:10079A002049005B645D005B655D00207C20003CB5
:1007AA0045493E0049003C44493E003C5344493EC9
:1007BA00005349003C52493E004F6E457869743AED
:1007CA0020490000C001CF013C022802D7011402CF
:0207DA00E40138
:00000001FF
