:100000000C9434000C9451000C9451000C94510049
:100010000C9451000C9451000C9451000C9451001C
:100020000C9451000C9451000C9451000C9451000C
:100030000C9451000C9451000C9451000C945100FC
:100040000C9451000C9451000C9451000C945100EC
:100050000C9451000C9451000C9451000C945100DC
:100060000C9451000C94510011241FBECFEFD8E026
:10007000DEBFCDBF11E0A0E0B1E0E6EAF5E002C0EE
:1000800005900D92AC37B107D9F711E0ACE7B1E0BC
:1000900001C01D92AE38B107E1F70E9453000C94E5
:1000A000D1020C9400000F931F930E94C30080E0C4
:1000B00091E00E94F3008DE091E00E94F3008FE157
:1000C00091E00E94F30087E591E00E94F3006FEF5A
:1000D0007FEF8FEF9FEF0E94CF008CE70E94D80048
:1000E00060E070E080E090E00E94CF008CE70E942A
:1000F000D80061E070E080E090E00E94CF008CE7E3
:100100000E94D80062E070E080E090E00E94CF00A2
:1001100000E611E0C8010E94F30083E691E00E942E
:10012000F3006FEF7FEF8FEF9FEF0E94E1008CE70E
:100130000E94D80060E070E080E090E80E94E1005A
:100140008CE70E94D8006FEF7FEF8FEF9FE70E9450
:10015000E1008CE70E94D8006FEF7FEF8FEF9FEFF9
:100160000E94EA008CE70E94D8006FEF7FEF8FEFCC
:100170009FEF0E94FC00C8010E94F30080E090E025
:100180001F910F9108958CE691E00E943A010E9420
:10019000CA00089590937D0180937C010895E091B9
:1001A0007C01F0917D010190F081E02D0995089589
:1001B000E0917C01F0917D010280F381E02D0995B1
:1001C0000895E0917C01F0917D010480F581E02D9E
:1001D00009950895E0917C01F0917D010680F781F9
:1001E000E02D09950895E0917C01F0917D01008456
:1001F000F185E02D09950895E0917C01F0917D0154
:100200000284F385E02D09950895E0917C01F09139
:100210007D010484F585E02D09950895611571052A
:100220008105910511F496E401C094E58091C00028
:1002300085FFFCCF9093C6000895982F8091C00051
:1002400085FFFCCF9093C6000895FC0107C0809104
:10025000C00085FFFCCF31969093C6009081992312
:10026000B1F708958091C00085FFFCCF8AE08093AC
:10027000C600089580917E0190917F01A091800138
:10028000B09181010097A105B105C9F487E680937B
:10029000C4001092C50086E08093C2008091C10026
:1002A00088608093C10081E090E0A0E0B0E080939E
:1002B0007E0190937F01A0938001B09381018DE630
:1002C00091E00895EF92FF920F9322E8E22E21E051
:1002D000F22EA70120E030E000E10E949701C70163
:1002E0000E9425010F91FF90EF900895EF92FF92E9
:1002F0000F9332E8E32E31E0F32EA70120E030E047
:100300000AE00E949701C7010E9425010F91FF900A
:10031000EF9008950F931F9302E811E0A8010E9447
:100320007102C8010E9425011F910F9108952F921B
:100330003F924F925F926F927F928F929F92AF9275
:10034000BF92CF92DF92EF92FF920F931F93DF93B2
:10035000CF93CDB7DEB72D970FB6F894DEBF0FBEA3
:10036000CDBF69837A838B839C835E834D833D8776
:100370002C870F830A3041F4612C2AEC722E2AE973
:10038000822E2BE3922E07C020E12F83612C712C4B
:10039000812C90E1992E89819A81AB81BC81009753
:1003A000A105B10561F4ED81FE81AC85BD85EA0F43
:1003B000FB1F80E380831196BD87AC8771C0222428
:1003C000332421013F81232F30E040E050E0288793
:1003D00039874A875B8769817A818B819C81A401F7
:1003E00093010E94AF0259016A01211431044104B2
:1003F000510429F4A114B104C104D10469F14F815D
:100400004A3079F4ED81FE818C859D85E80FF91FD6
:100410008A2D805D8083AC85BD851196BD87AC87B4
:1004200016C0BAE0AB16B104C104D10418F08A2D8D
:10043000895C02C08A2D805DED81FE812C853D8521
:10044000E20FF31F80832F5F3F4F3D872C8781E0B2
:10045000282E312C412C512CC401B301288539851B
:100460004A855B850E94AF0279018A01E114F1049B
:1004700001051105A9F0C601B501A40193010E946F
:10048000900229813A814B815C81261B370B480BF6
:10049000590B29833A834B835C83370148019BCFF7
:1004A0004D815E818C859D85480F591FDA011C9214
:1004B0002D960FB6F894DEBF0FBECDBFCF91DF9162
:1004C0001F910F91FF90EF90DF90CF90BF90AF9072
:1004D0009F908F907F906F905F904F903F902F9064
:1004E00008950F931F938B019C01DA0197FD03C0C0
:1004F000E0E0F0E00BC08DE28C93309520951095F4
:1005000001951F4F2F4F3F4FE1E0F0E0C901B801C7
:10051000AD019F010AE00E9497011F910F9108957C
:10052000629FD001739FF001829FE00DF11D649FD7
:10053000E00DF11D929FF00D839FF00D749FF00D63
:10054000659FF00D9927729FB00DE11DF91F639F04
:10055000B00DE11DF91FBD01CF0111240895A1E2E5
:100560001A2EAA1BBB1BFD010DC0AA1FBB1FEE1F2D
:10057000FF1FA217B307E407F50720F0A21BB30B78
:10058000E40BF50B661F771F881F991F1A9469F7F4
:1005900060957095809590959B01AC01BD01CF0150
:0605A0000895F894FFCF5E
:1005A60054657374204F75743A3C320A00426F6F7B
:1005B6006C733A205B547C467C547C545D0A00493B
:1005C6006E74733A20205B2D317C2D3231343734F2
:1005D60038333634387C323134373438333634377E
:1005E6007C343239343936373239357C46464646DC
:1005F600464646465D0A00426F6F6C733A205B00C2
:100606005D0A00496E74733A20205B00000E011DDE
:0C061600018A0176012501620132010019
:00000001FF
