:100000000C9434000C9451000C9451000C94510049
:100010000C9451000C9451000C9451000C9451001C
:100020000C9451000C9451000C9451000C9451000C
:100030000C9451000C9451000C9451000C945100FC
:100040000C9451000C9451000C9451000C945100EC
:100050000C9451000C9451000C9451000C945100DC
:100060000C9451000C94510011241FBECFEFD8E026
:10007000DEBFCDBF11E0A0E0B1E0E0E7F4E102C0F7
:1000800005900D92AA36B107D9F712E0AAE6B1E0C1
:1000900001C01D92A630B107E1F70E9453000C94F5
:1000A000360A0C9400000E940D0880E091E00E9446
:1000B0003D0888E191E00E943D0880E20E94DF0057
:1000C00090936B0180936A010E944A0190936D01A5
:1000D00080936C010E94D40780916A0190916B011A
:1000E00041E050E060E070E00E94020180916A010E
:1000F00090916B0142E050E060E070E00E940201EC
:1001000080916C0190916D010E94D40780916A01E9
:1001100090916B010E94BA0280916C0190916D01E7
:100120000E94D40780916A0190916B010E94A30103
:1001300080916C0190916D010E94D40780916A01B9
:1001400090916B010E94100380916C0190916D0160
:100150000E94D40780916A0190916B010E948F01E7
:10016000AB01BC01415050406040704080916A0139
:1001700090916B010E94020180916C0190916D0140
:100180000E94D40780916A0190916B010E94E50260
:1001900080916C0190916D010E94D40780916A0159
:1001A00090916B010E94160180916C0190916D01FC
:1001B0000E94D4070E944F0880E090E00895982F95
:1001C000882339F08FEF8093EF018093EE019093B5
:1001D000F0018EE691E008950895FC01EF57FF4F7E
:1001E0002081332727FD30952F5F3F4F442737FD70
:1001F0004095542FB901CA010895FC01EE57FF4FF5
:1002000080810895DC01AF57BF4FEC91EF5FEC9315
:10021000FF27E7FDF095EE0FFF1FEE0FFF1FE80F22
:10022000F91F40835183628373830895DC01AF57C4
:10023000BF4F2C91E22FFF27E7FDF095EE0FFF1F38
:10024000EE0FFF1FE80FF91F60817181828193819A
:1002500021502C93089520E030E040E050E0FC0174
:10026000EF57FF4F80818F3F21F421E030E040E0E5
:1002700050E0B901CA010895FC019093F201809306
:10028000F101EF57FF4F80818F5F8093F30181EF82
:1002900091E00895FC019093F2018093F101EF57F2
:1002A000FF4F80818F5F8093F30181EF91E008958C
:1002B0000895FC01228121502283332727FD3095A8
:1002C000432F532F2095309540955095222757FD69
:1002D0002395332744275527B901CA010895FC0106
:1002E000A081B1818281992787FD9095880F991F00
:1002F000880F991FA80FB91F6C9111967C911197C7
:1003000012968C91129713969C910895FC01A081EE
:10031000B181AF57BF4F8C918F5F82830895FC01ED
:10032000EF57FF4F8081E158F040992787FD909566
:10033000880F991F880F991FE80FF91F608171813D
:10034000828193810895BC016F577F4FFB01A0818B
:10035000EA2FFF27E7FDF095EE0FFF1FEE0FFF1FBF
:10036000E80FF91F2081318142815381AF5FFB018A
:10037000A083BB27A7FDB095AA0FBB1FAA0FBB1F69
:10038000A80FB91F2D933D934D935C931397089538
:10039000FC01EF57FF4F8081E158F040992787FD1E
:1003A0009095880F991F880F991FE80FF91F80817A
:1003B0009181A281B38180959095A095B09580831D
:1003C0009183A283B3830895DC01AF57BF4F6C9133
:1003D000E62FFF27E7FDF095EE0FFF1FEE0FFF1F43
:1003E000E80FF91F2081318142815381E62FE150CE
:1003F000EC93FF27E7FDF095EE0FFF1FEE0FFF1FB9
:10040000E80FF91F80819181A281B3818223932318
:10041000A423B52380839183A283B3830895DC0151
:10042000AF57BF4F6C91E62FFF27E7FDF095EE0F1A
:10043000FF1FEE0FFF1FE80FF91F2081318142815E
:100440005381E62FE150EC93FF27E7FDF095EE0F87
:10045000FF1FEE0FFF1FE80FF91F80819181A2811E
:10046000B381822B932BA42BB52B80839183A28302
:10047000B3830895DC01AF57BF4F6C91E62FFF2780
:10048000E7FDF095EE0FFF1FEE0FFF1FE80FF91FBE
:100490002081318142815381E62FE150EC93FF2787
:1004A000E7FDF095EE0FFF1FEE0FFF1FE80FF91F9E
:1004B00080819181A281B38182279327A427B527C8
:1004C00080839183A283B3830895FC01EF57FF4F8C
:1004D0008081E158F040992787FD9095880F991FFA
:1004E000880F991FE80FF91F80819181A281B38144
:1004F000B095A095909581959F4FAF4FBF4F80834A
:100500009183A283B3830895FC01EF57FF4F80814D
:10051000E158F040992787FD9095880F991F880F23
:10052000991FE80FF91F80819181A281B381019603
:10053000A11DB11D80839183A283B3830895FC0123
:10054000EF57FF4F8081E158F040992787FD909544
:10055000880F991F880F991FE80FF91F80819181DB
:10056000A281B3810197A109B10980839183A283FC
:10057000B3830895DC01AF57BF4F6C91E62FFF277F
:10058000E7FDF095EE0FFF1FEE0FFF1FE80FF91FBD
:100590002081318142815381E62FE150EC93FF2786
:1005A000E7FDF095EE0FFF1FEE0FFF1FE80FF91F9D
:1005B00080819181A281B381820F931FA41FB51FF7
:1005C00080839183A283B3830895DC01AF57BF4F2B
:1005D0006C91E62FFF27E7FDF095EE0FFF1FEE0F62
:1005E000FF1FE80FF91F2081318142815381E62FDF
:1005F000E150EC93FF27E7FDF095EE0FFF1FEE0FA4
:10060000FF1FE80FF91F80819181A281B381821BB6
:10061000930BA40BB50B80839183A283B3830895BE
:10062000CF93DF93DC01AF57BF4F6C91E62FFF27CD
:10063000E7FDF095EE0FFF1FEE0FFF1FE80FF91F0C
:10064000208131814281538161506C93C62FDD2717
:10065000C7FDD095CC0FDD1FCC0FDD1FC80FD91FF4
:10066000688179818A819B810E94DA096883798314
:100670008A839B83DF91CF910895CF93DF93DC0131
:10068000AF57BF4F6C91E62FFF27E7FDF095EE0FB8
:10069000FF1FEE0FFF1FE80FF91F208131814281FC
:1006A000538161506C93C62FDD27C7FDD095CC0FC9
:1006B000DD1FCC0FDD1FC80FD91F688179818A81AA
:1006C0009B810E941B0A688379838A839B83DF91C5
:1006D000CF910895DC01AF57BF4F3C91E32FFF2727
:1006E000E7FDF095EE0FFF1FEE0FFF1FE80FF91F5C
:1006F0002081E32FE150EC93FF27E7FDF095EE0F0B
:10070000FF1FEE0FFF1FE80FF91F80819181A2816B
:10071000B38104C0880F991FAA1FBB1F2A95D2F767
:1007200080839183A283B3830895DC01AF57BF4FC9
:100730003C91E32FFF27E7FDF095EE0FFF1FEE0F33
:10074000FF1FE80FF91F2081E32FE150EC93FF27F3
:10075000E7FDF095EE0FFF1FEE0FFF1FE80FF91FEB
:1007600080819181A281B38104C0B595A7959795A9
:1007700087952A95D2F780839183A283B3830895C6
:100780000F931F93DC01AF57BF4F2C91E22FFF2730
:10079000E7FDF095EE0FFF1FEE0FFF1FE80FF91FAB
:1007A000408151816281738121502C93E22FFF2778
:1007B000E7FDF095EE0FFF1FEE0FFF1FE80FF91F8B
:1007C00000E010E020E030E080819181A281B381DF
:1007D00084179507A607B70721F401E010E020E091
:1007E00030E000831183228333831F910F9108959A
:1007F0000F931F93DC01AF57BF4F2C91E22FFF27C0
:10080000E7FDF095EE0FFF1FEE0FFF1FE80FF91F3A
:10081000408151816281738121502C93E22FFF2707
:10082000E7FDF095EE0FFF1FEE0FFF1FE80FF91F1A
:1008300000E010E020E030E080819181A281B3816E
:1008400084179507A607B70721F001E010E020E024
:1008500030E000831183228333831F910F91089529
:100860000F931F93DC01AF57BF4F2C91E22FFF274F
:10087000E7FDF095EE0FFF1FEE0FFF1FE80FF91FCA
:10088000408151816281738121502C93E22FFF2797
:10089000E7FDF095EE0FFF1FEE0FFF1FE80FF91FAA
:1008A00000E010E020E030E080819181A281B381FE
:1008B00084179507A607B70724F401E010E020E0AD
:1008C00030E000831183228333831F910F910895B9
:1008D0000F931F93DC01AF57BF4F2C91E22FFF27DF
:1008E000E7FDF095EE0FFF1FEE0FFF1FE80FF91F5A
:1008F000408151816281738121502C93E22FFF2727
:10090000E7FDF095EE0FFF1FEE0FFF1FE80FF91F39
:1009100000E010E020E030E080819181A281B3818D
:10092000481759076A077B0724F401E010E020E02C
:1009300030E000831183228333831F910F91089548
:100940000F931F93DC01AF57BF4F2C91E22FFF276E
:10095000E7FDF095EE0FFF1FEE0FFF1FE80FF91FE9
:10096000408151816281738121502C93E22FFF27B6
:10097000E7FDF095EE0FFF1FEE0FFF1FE80FF91FC9
:1009800000E010E020E030E080819181A281B3811D
:10099000481759076A077B0724F001E010E020E0C0
:1009A00030E000831183228333831F910F910895D8
:1009B0000F931F93DC01AF57BF4F2C91E22FFF27FE
:1009C000E7FDF095EE0FFF1FEE0FFF1FE80FF91F79
:1009D000408151816281738121502C93E22FFF2746
:1009E000E7FDF095EE0FFF1FEE0FFF1FE80FF91F59
:1009F00000E010E020E030E080819181A281B381AD
:100A000084179507A607B70724F001E010E020E05F
:100A100030E000831183228333831F910F91089567
:100A2000CF92DF92EF92FF920F931F93AC01862F2C
:100A3000837011E8C12ED12CC40ED51ED6012C9185
:100A4000E22FFF27E7FDF095EE0FFF1FEE0FFF1FD0
:100A5000E40FF51FE080F18002811381382F320FFF
:100A6000E32FFF27E7FDF095EE0FFF1FEE0FFF1FAF
:100A7000E40FF51F262F220F220F2074660F6871D6
:100A8000262B822B90E0A0E0B0E080839183A283AC
:100A9000B3833F5FE32FFF27E7FDF095EE0FFF1FC6
:100AA000EE0FFF1FE40FF51FE082F1820283138334
:100AB0003F5FF6013083E32FFF27E7FDF095EE0F50
:100AC000FF1FEE0FFF1FE40FF51F40585F4FDA01C5
:100AD0008C91992787FD9095A92FB92F80839183B9
:100AE000A283B383FA0130831F910F91FF90EF909F
:100AF000DF90CF900895CF92DF92EF92FF920F9305
:100B00001F939C01862F877071E8C72ED12CC20ECF
:100B1000D31ED6014C91E42FFF27E7FDF095EE0F91
:100B2000FF1FEE0FFF1FE20FF31FE080F180028135
:100B30001381480FE42FFF27E7FDF095EE0FFF1F0D
:100B4000EE0FFF1FE20FF31F6877862B90E0A0E007
:100B5000B0E080839183A283B3834F5FE42FFF27AC
:100B6000E7FDF095EE0FFF1FEE0FFF1FE20FF31FE3
:100B7000E082F182028313834F5FF6014083E42F0A
:100B8000FF27E7FDF095EE0FFF1FEE0FFF1FE20FAF
:100B9000F31F20583F4FD9018C91992787FD9095DD
:100BA000A92FB92F80839183A283B383F901408356
:100BB0001F910F91FF90EF90DF90CF9008958F924B
:100BC0009F92AF92BF92CF92DF92EF92FF921F93CC
:100BD000CF93DF93EC01C058DF4FE881C058D0407D
:100BE000FF27E7FDF0953297EE0FFF1FEE0FFF1F77
:100BF000EC0FFD1F2081822F82958695869583704C
:100C000090E0A0E0B0E0122F16951695169517709B
:100C1000277051E0852E912CA12CB12C882299228D
:100C2000AA22BB2280FD05C040E050E060E070E0F9
:100C300014C0DE01AF57BF4F8C91E82FFF27E7FDAF
:100C4000F095EE0FFF1FEE0FFF1FEC0FFD1F408111
:100C500051816281738181508C93DE01AF57BF4F08
:100C60009C91E92FFF27E7FDF095EE0FFF1FEE0F98
:100C7000FF1FEC0FFD1F8081C058DF4F8883C058D5
:100C8000D0409150E92FFF27E7FDF095EE0FFF1FB1
:100C9000EE0FFF1FEC0FFD1FC080D180E280F380BC
:100CA000812F820F392F381B32503C93822F90E0D6
:100CB000810F911D089714F0321B3C93811491040D
:100CC000A104B10499F0DE01AF57BF4FEC91EF5F83
:100CD000EC93FF27E7FDF095EE0FFF1FEE0FFF1FD0
:100CE000EC0FFD1F4083518362837383DE01AF5796
:100CF000BF4FEC91EF5FEC93FF27E7FDF095EE0F10
:100D0000FF1FEE0FFF1FEC0FFD1FC082D182E2829A
:100D1000F382DF91CF911F91FF90EF90DF90CF9002
:100D2000BF90AF909F908F900895EF92FF921F9386
:100D3000CF93DF93EC01462FC058DF4F8881C05816
:100D4000D040682F772767FD7095FB013297EE0F33
:100D5000FF1FEE0FFF1FEC0FFD1F8081382F369510
:100D6000369536953770282F2770822F90E0830FA5
:100D7000911D08972CF0822F841B8E5F820F03C079
:100D8000822F841B8E5F830F681B7109660F771F8C
:100D9000660F771F6C0F7D1FFB0180819181A281FF
:100DA000B38131E8E32EF12CEC0EFD1EF70110812A
:100DB000E12FFF27E7FDF095EE0FFF1FEE0FFF1F5E
:100DC000EC0FFD1F20813181428153811150F701C9
:100DD0001083820F931FA41FB51FFB018083918393
:100DE000A283B383DF91CF911F91FF90EF9008957D
:100DF000CF93DF93EC01C058DF4F8881C058D040BB
:100E0000A82FBB27A7FDB095FD013297EE0FFF1F5E
:100E1000EE0FFF1FEC0FFD1F8081382F36953695A2
:100E200036953770282F2770822F90E0830F911D01
:100E3000089734F0822F861B682F6E5F620F03C005
:100E4000261B622F6E5F630FA61BB109AA0FBB1F83
:100E5000AA0FBB1FAC0FBD1F2D913D914D915C9111
:100E6000DE01AF57BF4FEC91EF5FEC93FF27E7FD3B
:100E7000F095EE0FFF1FEE0FFF1FEC0FFD1F2083FD
:100E8000318342835383DF91CF9108950F931F9352
:100E9000CF93DF93EC01C058DF4F8881C058D0401A
:100EA000082F112707FD1095F8013297EE0FFF1F4D
:100EB000EE0FFF1FEC0FFD1F8081382F3695369502
:100EC00036953770282F2770822F90E0830F911D61
:100ED000089734F0822F861B682F6E5F620F03C065
:100EE000261B622F6E5F630FDE01AF57BF4F8C91E1
:100EF000E82FFF27E7FDF095EE0FFF1FEE0FFF1F16
:100F0000EC0FFD1F208131814281538181508C93F0
:100F1000061B1109000F111F000F111F0C0F1D1FC1
:100F2000F8012083318342835383DF91CF911F9156
:100F30000F9108950F931F93BC01FC01EF57FF4FD2
:100F40008081A82FBB27A7FDB095AA0FBB1FAA0FB2
:100F5000BB1FA60FB71F2D913D914D915C91082F9E
:100F600001500083211531054105510529F484E420
:100F700091E00E943D0815C0112707FD1095000F54
:100F8000111F000F111F060F171FF80160817181DB
:100F9000828193810E941B0AF8012083318342835E
:100FA00053831F910F910895EF92FF920F931F9318
:100FB000CF93DF93EC01E881F981EF57FF4F8081F8
:100FC0008F5F8A838BE50E94220817C0E881F98130
:100FD000992787FD9095880F991F880F991FE80F13
:100FE000F91FE080F1800281138186E591E00E9483
:100FF0003D08C801B7010E9446088A8181508A8352
:1010000087FFE4CF88E591E00E943D08DF91CF9112
:101010001F910F91FF90EF9008958BE591E00E9452
:1010200084080E94140808959093F5018093F401B8
:101030000895E091F401F091F5010190F081E02D27
:1010400009950895E091F401F091F5010280F38192
:10105000E02D09950895E091F401F091F5010480E7
:10106000F581E02D09950895E091F401F091F501E5
:101070000680F781E02D09950895E091F401F09143
:10108000F5010084F185E02D09950895E091F401C2
:10109000F091F5010284F385E02D09950895E09122
:1010A000F401F091F5010484F585E02D099508958A
:1010B000611571058105910511F496E401C094E56F
:1010C0008091C00085FFFCCF9093C6000895982FB3
:1010D0008091C00085FFFCCF9093C6000895FC016D
:1010E00007C08091C00085FFFCCF31969093C60069
:1010F00090819923B1F708958091C00085FFFCCFBE
:101100008AE08093C60008958091F6019091F701DE
:10111000A091F801B091F9010097A105B105C9F4BA
:1011200087E68093C4001092C50086E08093C200D9
:101130008091C10088608093C10081E090E0A0E0D0
:10114000B0E08093F6019093F701A093F801B0937B
:10115000F9018CE591E00895EF92FF920F932AEF49
:10116000E22E21E0F22EA70120E030E000E10E9413
:10117000E108C7010E946F080F91FF90EF9008955A
:10118000EF92FF920F933AEFE32E31E0F32EA70197
:1011900020E030E00AE00E94E108C7010E946F08E9
:1011A0000F91FF90EF9008950F931F930AEF11E0B6
:1011B000A8010E94BB09C8010E946F081F910F91EE
:1011C00008952F923F924F925F926F927F928F92EB
:1011D0009F92AF92BF92CF92DF92EF92FF920F93C6
:1011E0001F93DF93CF93CDB7DEB72D970FB6F8944B
:1011F000DEBF0FBECDBF69837A838B839C835E8302
:101200004D833D872C870F830A3041F4612C2AECF3
:10121000722E2AE9822E2BE3922E07C020E12F8323
:10122000612C712C812C90E1992E89819A81AB815E
:10123000BC810097A105B10561F4ED81FE81AC850B
:10124000BD85EA0FFB1F80E380831196BD87AC87C5
:1012500071C02224332421013F81232F30E040E05C
:1012600050E0288739874A875B8769817A818B813B
:101270009C81A40193010E94F90959016A0121147A
:1012800031044104510429F4A114B104C104D1046E
:1012900069F14F814A3079F4ED81FE818C859D851D
:1012A000E80FF91F8A2D805D8083AC85BD8511967E
:1012B000BD87AC8716C0BAE0AB16B104C104D10437
:1012C00018F08A2D895C02C08A2D805DED81FE8137
:1012D0002C853D85E20FF31F80832F5F3F4F3D87B5
:1012E0002C8781E0282E312C412C512CC401B301D4
:1012F000288539854A855B850E94F90979018A012B
:10130000E114F10401051105A9F0C601B501A4011C
:1013100093010E94DA0929813A814B815C81261B65
:10132000370B480B590B29833A834B835C83370176
:1013300048019BCF4D815E818C859D85480F591F4B
:10134000DA011C922D960FB6F894DEBF0FBECDBF0A
:10135000CF91DF911F910F91FF90EF90DF90CF9091
:10136000BF90AF909F908F907F906F905F904F90C5
:101370003F902F9008950F931F938B019C01DA01EA
:1013800097FD03C0E0E0F0E00BC08DE28C93309558
:101390002095109501951F4F2F4F3F4FE1E0F0E052
:1013A000C901B801AD019F010AE00E94E1081F9147
:1013B0000F910895629FD001739FF001829FE00D0D
:1013C000F11D649FE00DF11D929FF00D839FF00DC4
:1013D000749FF00D659FF00D9927729FB00DE11D70
:1013E000F91F639FB00DE11DF91FBD01CF0111244D
:1013F0000895A1E21A2EAA1BBB1BFD010DC0AA1F56
:10140000BB1FEE1FFF1FA217B307E407F50720F06D
:10141000A21BB30BE40BF50B661F771F881F991FE8
:101420001A9469F760957095809590959B01AC0131
:10143000BD01CF01089597FB092E05260ED057FD5B
:1014400004D0D7DF0AD0001C38F450954095309571
:1014500021953F4F4F4F5F4F0895F6F79095809538
:10146000709561957F4F8F4F9F4F0895F894FFCFF0
:101470005465737420564D204F706572616E642000
:10148000537461636B3A0A005B205D5B203220314C
:10149000205D5B2033205D5B20332033205D5B20AB
:1014A00039205D5B20382039205D5B2031205D5B79
:1014B000205D0A004469766973696F6E2062792045
:1014C0007A65726F0A002000205D000058086708E6
:0A14D000D408C0086F08AC087C08BF
:00000001FF
